:02000000804E30
:10005000C2AF1202131201431202420A0D57656C1D
:10006000636F6D6520746F20746865205369676ED7
:1000700041776179205245504C210075812FC21F74
:100080001202420A0D3E20001200A4FA0200C01221
:1000900002420A0D42616420636F6D6D616E642ED1
:1000A0000002007B120228C2E5120220C3944050D5
:1000B0000312008FC0E0941B400312008FD0E02297
:1000C0009000CFEA230493C0E0EA2393C0E022002B
:1000D0008F008F008F008F008F008F008F008F00A8
:1000E0008F008F008F008F008F008F008F008F0098
:1000F0008F008F0105008F008F008F008F011E0081
:100100008F008F008F120288201F35F510120261B8
:1001100012018DE51112025612026102007B1202D9
:1001200088201F1CF51012026112022812022012F0
:100130000288201F0BF51112026112017802007B68
:1001400002008FC0E0D2B4D290D29274905407F8DB
:100150007401120232F512F4F51374915407F87415
:1001600001120232F514F4F51574925407F8740173
:10017000120232F516D0E022C0E0C2B4E51044808D
:100180001201A8E5111201A8D2B4D0E022C0E0C249
:10019000B4E510547F1201A875174012023E1201F7
:1001A000D5F511D2B4D0E022C000780823C0E030E9
:1001B000E008E590551345148008E5905513551552
:1001C0008000F59075170312023E4512F590D0E0BD
:1001D000D8DAD00022C000780823C0E0E51352909E
:1001E00075170312023EE5124290D0E0309204D21D
:1001F000E08004C2E08000D8E0D00022D2B78510B1
:1002000090C2B7D2B775174012023E851190C2B79F
:10021000D2B722758920758841758DFD7598502259
:10022000C299F5993099FD223098FDE599547FC225
:100230009822080323D8FD22082303D8FD22D517CE
:10024000FD22D083D082E493B40002800612022003
:10025000A380F3740173740A120220740D12022039
:1002600022C0E0120270120220EA120220D0E02224
:10027000FA540F24F650022407243ACAC4540F2417
:10028000F650022407243A2212022812029AC4F5D8
:10029000F012022812029A45F022C21F24D05017F1
:1002A000C324F64003240A22C2E5C324F95008C33C
:0A02B00024FA4003540F22D21F224B
:00000001FF
