:02000000804E30
:10005000C2AF12020012013212022B0A0D57656C58
:10006000636F6D6520746F20746865205369676ED7
:1000700041776179205245504C210075812F120241
:100080002B0A0D3E20001200A2FA0200BE12022B23
:100090000A0D42616420636F6D6D616E642E000213
:1000A000007B120215C2E512020DC39440500312E8
:1000B000008DC0E0941B400312008DD0E022900020
:1000C000CDEA230493C0E0EA2393C0E022008D0030
:1000D0008D008D008D008D008D008D008D008D00B8
:1000E0008D008D008D008D008D008D008D008D00A8
:1000F0008D0103008D008D008D008D0116008D0097
:100100008D008D120271F51012024A12017AE5116A
:1001100012024A02007B120271F51012024A120208
:100120001512020D120271F51112024A1201650236
:10013000007BC0E0D2B5D290E590540FF874011264
:10014000021FF512F4F513E591540FF87401120231
:100150001FF514F4F515E592540FF8740112021FFF
:10016000F516D0E022C0E0C2B5E51044801201953A
:10017000E511120195D2B5D0E022C0E0C2B5E5107C
:10018000547F1201957517401202271201C2F51112
:10019000D2B5D0E022C000780723C0E030E008E507
:1001A00090551345148008E590551345148000F5CB
:1001B000907517011202274512F590D0E0D8DAD0D9
:1001C0000022C000780723C0E0E5135290751701A4
:1001D000120227E5124290D0E0309204D2E080046F
:1001E000C2E08000D8B3D00022D2B4851090C2B44F
:1001F000D2B4751740120227851190C2B4D2B4222E
:10020000758920758841758DFD75985022C299F5C4
:10021000993099FD223098FDE599547FC2982223A8
:10022000D8FD2203D8FD22D517FD22D083D082E449
:1002300093B40002800612020DA380F3740173745C
:100240000A12020D740D12020D22C0E012025912A0
:10025000020DEA12020DD0E022FA540F24F65002E9
:100260002407243ACAC4540F24F650022407243A1F
:1002700022120215120283C4F5F012021512028333
:1002800045F022C21F24D05017C324F64003240A8D
:1002900022C2E5C324F95008C324FA4003540F22B4
:0302A000D21F2248
:00000001FF
