:400000000010002011000000E5050000E505000080B500AF00F0EAFA80B584B000AF021CFB1D1A70224A3B1C0B3312781A70214A3B1C0A3312781A701F4B1B68013BFB606F
:400040001AE01E4B1868391C0B31FA68131C5B009B18C31801331B780B70184B1868391C0A31FA68131C5B009B18C31802331B780B70FB68013BFB60FB68002B0ADB0F4B59
:400080001968FA68131C5B009B185B5CFA1D12789A42D6D90A4B3A1C0B3212781A60094B3A1C0A3212781A60BD4604B080BDC046CCF1FF0FCDF1FF0F901A0000CC00002040
:4000C0001CFF0B4020FF0B4080B500AF1B4B1B4A12688021C9020A431A601820FFF79CFF174B19221A60052000F042FC154B164A1278D2B21A60052000F01EFD0F4B0F4A76
:400100001168124A0A401A60114B20221A60114B20221A60104B10221A60104B802212061A600F4B802212061A600E4B0E4A1A600E4B0F4A1A60BD4680BDC04600010B40E9
:400140002CFF0B4028FF0B40E5F1FF0FFFFFFBFF080202400C0202403002024008010B4004010B40000002400100008040000240CF00008080B582B000AF72B6474B012280
:400180001A70FB1D00221A7023E0FB1D1A78131C5B009B185B00424A9B183B603B681A78597809020A43997809040A43DB781B0613431A1C3B6819795B791B020B439BB248
:4001C000101C191C00F096FAFB1DFA1D127801321A70FB1D1B78012BD7D9324A324B101C191C00F097FA314B802252001A80304B01221A702F4B304A1A60304B49221A6046
:400200002F4B304A1A60304B8022D2011A602F4B49221A602E4B3F221A602E4B02221A602D4B2E4A1A602E4B02221A602D4B2E4A1A602E4BA82292031A602D4B9922120496
:400240001A602C4B802212061A602B4B992212041A602A4BA82292031A60294B992212041A60284B09221A60274B0A221A60274B264A1278D2B202210A43D2B21A70234B7F
:40028000224A1278D2B206210A43D2B21A70FFF71BFF00F07FFABD4602B080BD1C700F40C8180000D4180000F418000000600F4002600F400C00014099EE000008000440A4
:4002C00008010440006C3B000C010440080204400C0204400003044008030440B10D00001803044000500F400400990004500F4010500F4014500F4020500F4024500F40A3
:4003000030500F402000004000800F4000700F4010B5064C2378002B07D10548002802D0044800E000BF0121217010BD4801002000000000B818000008B5084B002B03D052
:400340000748084900E000BF07480168002903D0064A002A00D0904708BDC04600000000B81800004C010020C80000200000000090B587B002AF3C1C0E3400F0A3FA031C06
:4003800023803B1C0E331B88F02213439BB21B0A9AB23B1C0D331A703B1C0E331B88DBB20F221343DAB23B1C0C331A702D4B1B78002B54D12C4B1B68002B50D12B4B1B6883
:4003C000012B4CD13B1C0D331B785BB29AB2284B1B889BB2D3189BB29AB2254B1A803B1C0C331B785BB29AB2224B1B889BB2D3189BB29AB21F4B1A801F4B1B881A1C1C4B2F
:4004000019881E4B5200D1521B4B1B881A1C194B19881B4B5200D152154B1B881BB2154A128810B2391C174A0090081C0C2100F02FFE3B1C181C00F013FC134B181C00F0D3
:400440000FFC0D4B1B8801339AB20B4B1A800A4B1A880E4B9A4202D9034B01221A60BD4605B090BD6A0100206C010020700100206401002066010020680100208C05002020
:400480008C010020BC180000C4180000FF01000080B500AF064B00221A80064B00221A80054B00221A80054B00221A60BD4680BD6401002066010020680100206C01002087
:4004C00090B583B000AF012000F012FBFC1D00F01DFD031C2370FB1D1A7802231340DBB2002B03D11A4B00221A700DE0FB1D1A7804231340DBB2002B03D1154B01221A7079
:4005000002E0134B02221A70FB1D1A7801231340DBB2002B03D10F4B01221A6002E00D4B00221A600A4B1B785A425341DBB2181C00F0B0FB084B1B780122D31ADAB2064B0C
:400540001A7000F0D9FC00F0EFFCBD4603B090BD6A010020700100207401002080B500AF174B1B881A1C174B1988174B5200D152134B1B881A1C154B1988154B5200D15297
:4005800000F066F900F002FB00F074F9114B181C00F0A6FB104B181C00F0FAFB0F4B181C00F050FC62B60E4B1B78181C00F072FB0B4B1B780122D31ADAB2094B1A70FEE766
:4005C00068010020640100208C050020660100208C0100207103000091040000C10400007401002080B500AFFEE7C04680B586B000AF254B7B61254B3B61234B7B61234BAC
:400600003B6132E03B691B68FB603B695B68BB603B699B683B6000237B600CE0FB681A68BB681A60BB680433BB60FB680433FB607B6804337B607A683B689A42EED13B6937
:40064000DB683B6000237B6008E0BB6800221A60BB680433BB607B6804337B607A683B689A42F2D13B6910333B617B695A1E9341DBB27A69013A7A61002BC3D100F0D0FCB5
:40068000FFF76CFFFEE7C04601000000F01A000080B582B000AF00237B600FE07B68032B04D8104B7A689200D35800E00E4B0F4A796889008B507B6801337B607B682F2BF3
:4006C000ECD9FFF757FD0A4B00221A608023DB058022D205126801210A431A60BD4602B080BDC04600000000E505000000000020C000002080B582B000AF786039607A6850
:400700003B68101C00211A1C00F0B9FCBD4602B080BDC04680B586B000AF7860396000233B6100237B612EE07B699B007A68D3181B68BB603B1C0F33BA681A70BB68FF222C
:400740009343BB6017E03B695B003A68D3181B781A1CBB68D3183A69520039688A1852781A703B6901333B613B1C0F333A1C0F321278013A1A703B1C0F331B78002BE2D1A5
:400780007B6901337B617B69072BCDD9BD4606B080BDC04680B500AFBD4680BD80B500AF0E4B0F221A70002000F082F90C4B0020191C00F0EDF80020032100F00FF900F039
:4007C00091F800F05FF800F06DF8064B00221A70054B08221A70BD4680BDC04682000F406909000083000F4081000F4090B583B000AFFC1D00F0C5F8031C2370114B114A52
:400800001278D2B220210A43D2B21A700E4B0E4A1278D2B210210A43D2B21A700B4B0B4A1278D2B210210A43D2B21A70FB1D1B78181C00F0AAF8002000F024F9BD4603B02A
:4008400090BDC04692000F4093000F4091000F4080B500AF064B1B78002B04D1FFF79EFF034B01221A70FFF7C1FFBD4680BDC0467801002080B500AF002000F003F9BD46A4
:4008800080BDC04680B582B000AF054AFB1D12781A70FB1D1B78181CBD4602B080BDC04663000F4080B582B000AF054AFB1D12781A70FB1D1B78181CBD4602B080BDC04673
:4008C00061000F4080B582B000AF054ABB1D12881A80BB1D1B88181CBD4602B080BDC046A4100F4090B583B000AF01E01A4B1B881A4B1B78DBB21A1C08231340F6D1FC1D04
:4009000000F03FF8031C2370154B154A1278D2B203210A43D2B21A70114B114A1278D2B203218A43D2B21A700E4B0E4A1278D2B203210A43D2B21A700A4B0A4A1278D2B2D9
:4009400003218A43D2B21A70FB1D1B78181C00F01CF8BD4603B090BDA4100F4061000F4092000F4093000F4080B500AFBD4680BD0230800804D0C0460138FDD1C046C04651
:400980007047EFF3108072B6704780F31088704780B584B000AF021C3960FB1D1A7080239B05FB60FB1D1B781F2B02D9002000F095F8FB1D1B7810339B00FA68D3181B6898
:4009C000BB60FB1D1B7810339B00FA68D3183A681A60BB68181CBD4604B080BD90B587B000AF0A1CFB1D011C1970BB1D1A70BB1D1B78032B02D9002000F070F8FB1D1B7897
:400A00001F2B02D9002000F069F8FB1D1A7803231340DB0006337B613C1C1334FFF7B1FF031C2370FB1D1B789B08DBB29B0014495B181B68FB607B690322111C99400B1CBC
:400A4000DA43FB681340FB60BB1D1A787B69111C99400B1CFA681343FB60FB1D1B789B08DBB29B00064A9B18FA681A603B1C13331B78181CFFF789FFBD4607B090BDC04676
:400A800000E400E080B582B000AF021CFB1D1A70064BFA1D11781F220A400121081C9040021C1A60BD4602B080BDC04600E100E080B582B000AF021CFB1D1A70064BFA1D7B
:400AC00011781F220A400121081C9040021C1A60BD4602B080BDC04680E100E080B582B000AF021CFB1D1A7001BEBD4602B080BD80B582B000AF786008E00C4B1B68181C90
:400B0000FFF736FF7B680A4A9B187B607A6880231B029A42F1D8074B1B687A685343181CFFF726FFBD4602B080BDC046DC0000200080FFFFD400002080B582B000AF021C48
:400B4000BB1D1A80BB1D1B88044A12785343181CFFF70EFFBD4602B080BDC046D800002080B500AF00F028F8BD4680BD80B500AF054B054A1268802109060A431A6000F05B
:400B800017F8BD4680BDC0460000074080B500AF064B1B78002B04D1FFF7E2FF034B01221A70FFF7E3FFBD4680BDC0467C01002080B500AFBD4680BD80B500AF174B184A78
:400BC0001A60184B00221A60174B01221A60174B174A1A60174B07221A60174B00221A60164B01221A60164B114A1A60154B00221A60154B00221A60144B00221A60144BB7
:400C000000221A60134B00221A60134B00221A60124B00221A60BD4680BDC046000007400B0000024000074048000740000307400700008004030740100307404400074077
:400C40000002074004020740880E0740C80E0740480F0740080F0740C80F0740880F074080B584B000AF78600023FB6009E07A68FB68D3181B78181C00F06CF9FB680133B2
:400C8000FB607A68FB68D3181B78002BEFD1BD4604B080BD80B584B000AF021CFB1D1A700E4B1B68DAB23B1C0F3340218A431A70FB1D1B789B01DAB240231340D9B23B1C3B
:400CC0000F333A1C0F3212780A431A70034B3A1C0F3212781A60BD4604B080BD0001044080B582B000AF786000F048F87B68181C00F008F8032000F011F800F035F8BD4637
:400D000002B080BD80B582B000AF7860024B7A68DA64BD4602B080BD0000002090B585B000AF021CFB1D1A701E23FB603C1C0B34FFF727FE031C23700A4B0A4A12689200B9
:400D40009108FA1D1078FA68041C9440221C0A431A603B1C0B331B78181CFFF716FEBD4605B090BD00E400E080B500AF024B08221A60BD4680BDC04600E100E080B500AFF1
:400D8000024B08221A60BD4680BDC04680E100E080B582B000AF786000F04AF87B68181C00F008F8032000F011F800F037F8BD4602B080BD80B582B000AF7860024B7A684A
:400DC0005A64BD4602B080BD0000002090B585B000AF021CFB1D1A700E23FB603C1C0B34FFF7CFFD031C23700A4B0A4A11680A4A1140FA1D1078FA68041C9440221C0A435C
:400E00001A603B1C0B331B78181CFFF7BEFDBD4605B090BD00E400E0FF3FFFFF80B500AF024B02221A60BD4680BDC04600E100E080B500AF024B02221A60BD4680BDC0463B
:400E400080E100E080B582B000AF786000F04AF87B68181C00F008F8032000F011F800F037F8BD4602B080BD80B582B000AF7860024B7A689A64BD4602B080BD00000020B0
:400E800090B585B000AF021CFB1D1A701623FB603C1C0B34FFF775FD031C23700A4B0A4A11680A4A1140FA1D1078FA68041C9440221C0A431A603B1C0B331B78181CFFF7F1
:400EC00064FDBD4605B090BD00E400E0FFFF3FFF80B500AF024B04221A60BD4680BDC04600E100E080B500AF024B04221A60BD4680BDC04680E100E080B500AF024B042205
:400F00001A60BD4680BDC04680E200E080B500AF044B1B68DAB207231340DBB2181CBD4680BDC0460402044080B582B000AF084B1B68D9B2FB1D07220A401A70044BFA1DAD
:400F400012781A60FB1D1B78181CBD4602B080BD1002044080B582B000AF7860C046064B1A680F231340082BF9D0044B7A681A60BD4602B080BDC046080207404002074081
:400F8000002934D00123002210B488422CD301242407A14204D2814202D209011B01F8E7E400A14204D2814202D249005B00F8E7884201D3401A1A434C08A04202D3001B5A
:400FC0005C0822438C08A04202D3001B9C082243CC08A04202D3001BDC082243002803D01B0901D00909E3E7101C10BC7047002801D00020C04307B4024802A140180290A1
:4010000003BDC046190000000029F0D003B5FFF7B9FF0EBC4243891A1847C0467047C04670B50E4B0E4D0024E81A85101E1CAC4204D0A100725890470134F8E700F046FD55
:401040000849094A0E1C541AA5100024AC4204D0A300F05880470134F8E770BDD81A0000D81A0000D81A0000E01A000010B50023934203D0CC5CC4540133F9E710BD00B570
:401080008218031C934202D019700133FAE700BD0CB430B5164B9DB00C1C1D6804D58B200122286050421DE002A9822293000290086100208B81844200D0601E01225342E2
:4010C00088604861CB81209A21AB281C019300F069F8421C01DA8B212960002C02D0029D00242C701DB030BC08BC02B01847C04644010020F7B501919168071C141C0029ED
:4011000040D190239289D80002423BD02568216963696E1A58000096C6180098F50FAB1901305D10A84201DB009D0235381C53050FD5291C00F004FB061E13D02169009AEB
:40114000FFF794FFA7891649802239401143A18111E02A1C00F04AFB061E0CD1381C216900F0A6FA0C203860A58940263543A5810124604213E0009B6561F018ED1A266144
:401180002060A560A668002E08DD694627680A793A70A3680137013B2760A3600020FEBD7FFBFFFFF0B5A1B0049007938B890E1C171C19060FD53269002A0CD1402100F037
:4011C000BFFA30603061002803D1049C0C262660D6E04020706108AD00212024302369616C76AB763C1C2278002A04D1E01B069019D003970FE0252AF8D00134F3E70399EA
:40120000321C09780498FFF775FF039A01320392013000D1AFE003990698CB1B8342EEDB0D9F3A180D922178002900D1A3E001206A4600234742633201342B60EB606F6096
:40124000AB601370AB65504F2178381C052200F0C1FA002807D0C71B2B680120B840184328600134EFE72B68D90603D568462021633001701A0703D56A462B2763321770A3
:4012800021782A2901D00B9B0EE0079A1068111D0791002801DB0B9004E0022247421343EF602B60013409E020783038092804D80A277B4301341B18F6E70B9323782E2BAD
:4012C00018D161782A2909D1079B02341A68191D0791002A0DDA012042420AE00134002220783038092804D80A277A4301341218F6E70992254F2178381C032200F06AFA34
:40130000002806D02B68C21B4021914019432960013421781E4806222976671C00F05AFA002817D01B4800280BD12868079C0723C10501D5E41800E007349C43083407942A
:4013400014E007AA00920498291C321C124B00E000BF07E007AC00940498291C321C0E4B00F08CF8059005994A1C04D00D99059A8C180D9436E7B589690601D40D9801E0C5
:401380000127784221B0F0BD961A00009C1A0000A01A000000000000F5100000F7B5151C01930A698B6800900C1C934200DA131C201C2B6043300178002901D001332B60CF
:4013C0002668B00602D52F6802372F602268062616401CD0261C4336377822683E1C731E9E4192061CD5A319181C40303021271CC17045373A784133DA70023610E0617E1C
:401400000098019A089FB847013006D00136E3682868191A8E42F2DBDCE7012040422CE00027B7420ADAE119433109780098019A089B98470130F0D00137F2E72B682568AE
:4014400006212940E6680025042903D1F01AC743FD170540A2682669B24201DD931BED180027AF4208DAA17E0098019A089EB0470130D2D00137F4E70020FEBDF0B50D1C65
:401480008BB0433507930590069204950A7E0C1C109B6E2A00D1A8E012D8632A24D009D8002A00D1B1E0582A00D0C1E045310A707D4D51E0642A1FD0692A00D0B8E01BE0A4
:4014C000732A00D1A5E009D86F2A2BD0702A00D0AEE00A68202616430E6038E0752A21D0782A00D0A4E032E018680E1C051D1D600368423633709EE026681F68300606D4EB
:40150000750604D5381D186000203D5E02E03D1D1D603D68644B002D3BDA04992D226D420A7036E027681E683D0605D4780603D5351D1D60358802E0311D196035685A4B57
:40154000207E039308276F281ED00A271CE0271C45377820554D38701A682668111D03951960300603D4750601D5158800E01568F00702D520231E4326601027002D03D1DE
:401580002668202086432660261C43360022327001E003930A276168A160002903DB2068042398432060002D02D1049E00290ED0049E281C391CFFF727FD039A013E515C85
:4015C000281C3170391CFFF7DBFC051EF1D1049B9A1B2261082F33D12768F80730D5606890422DDC013262602AE008681E684969050606D4450604D5351D1D603368198004
:4016000003E0321D1A603768396000202061049E16E01E68311D19603668301C00F01EF965682061A84200D925612369636004E0261C4236327001212161049F00223A7016
:4016400007990598009109AA211C069BFFF7A6FE01300CD0351C2269AB1B93420ADA29780598069A079FB84701350130F3D10122504217E02668B10705D4099BE0689842CA
:4016800010DA181C0EE00025E7680998391A8D42F3DA617E0598069A079EB0470130E6D00135F1E70BB0F0BDA71A0000B81A000030B5002940D004390B68002B00DAC918BE
:4016C0001E4A1368141C002B02D14B60116033E099420FD20D684A199A4205D110682B1855680B604D6000E04B60216024E08A4203D8131C5A68002AF9D11D685C198C4270
:401700000BD10C682D1958191D60904214D1116852686C181C605A600EE08C4202D90C21016009E008680D18954203D114685268001908604A60596030BDC0468401002081
:4017400070B50323CD1C9D430835061C0C2D01D20C2501E0002D2DDB8D422BD31C4A1368111C1C1C002C12D02068421B0CD40B2A02D92260A41815E0A34202D166680E6086
:401780001CE065685D6019E0231C6468EAE7301C291C00F051F8421C0CD0C41C03218C43844201D1256009E0211A301C00F044F80130F7D10C243460002008E0201C0B3002
:4017C0000722211D9043431A01D05D42E55070BD8401002000B5C9B28218904204D003788B4202D00130F8E7002000BDF8B5061C0C1C151C002904D1111CFFF7A1FF041C5B
:4018000018E0002A03D1FFF753FF2C1C12E000F02CF8A8420ED2301C291CFFF791FF071E07D0211C2A1CFFF721FC301C211CFFF73FFF3C1C201CF8BD38B5074C0023051C1F
:40184000081C236000F01CF8431C03D12168002900D0296038BDC0468C0900200023C25C0133002AFBD1581E704704390B6800B5181F002B02DAC8581918081F00BD00005F
:401880000A4A00B51368002B0CD018186946884202D81060181C00BD054B0C2201201A604342F7E7034B1360EFE7C046880100208C090020900900200000000025692025B6
:4018C000690000000D0A000000300F40000400400F40000403000F401B300F4020310F4048320F4037330F400A400F4005410F4002600F408178820F8347000807010C05F0
:40190000120126082E07300232043408360137013E545608580459045B045F018C02A001B002B601BE41D420D604D804DB04DF0100410702080212111501185019A01D42A9
:401940001F012001380442404302580459015A405B205D016006621163106560675079017A808740C089C208C415CE02D68FD8FF09010C410E901101121E1501162118C1A2
:401980001A041CC11E02210124C126082B013020324033013480361F3E543F04400341044230440149FF4AFF4BFF4C024E704F0C508C511056025720580459045A245B2494
:4019C0005C085D885E085F11684069016AC06B01C003C104C230C401C6EFC7CDC83CC9FFCAFFCBFFCC23CEF0CF0CD08CD110D441DA24DB04DD08DF11E840E901EAC0EB0105
:401A00000420052007010EAA17041C041D881E8027202C8C360437013E10418A458A50185280530259A4601067026C806E1A6F057B087C807D207F0881108C068D05901081
:401A40009302988299809C049D019F20A102A210A680A702AC80AE10AF02C080C2F0C420CAA0CCC0CE20D0DBD60ED812DE34032807806E80770286408702C070DA80DC408F
:401A8000E64083809B80AF28E080EC5010011101040000004300232D302B2000686C4C006566674546470030313233343536373839414243444546003031323334353637D8
:401AC000383961626364656600000000F8B5C046F8BC08BC9E4670473903000091060000F8B5C046F8BC08BC9E46704711030000001B0000C80000208000000048080000DA
:401B000000000000C0F1FF0F00366E01C05D0000180000000000E02E0000000000000000000000000000000000000000000000000000000000000000941A00000000000050
:401B4000000000000000000000000000000000000000000000000000000000000000000000000000000000000000000000000000000000000000000000000000E000002065
:401B80000000000000000000000000000000000000000000000000000000000000000000000000000000000000000000000000000000000000000000000000000000000025
:401BC00000000000000000000000000000000000000000000000000000000000000000000000000000000000000000000000000000000000000000000000000000000000E5
:401C000000000000000000000000000000000000000000000000000000000000000000000000000000000000000000000000000000000000000000000000000000000000A4
:401C40000000000000000000000000000000000000000000000000000000000000000000000000000000000000000000000000000000000000000000000000000000000064
:0200000490303A
:02000000F635D3
:0200000490402A
:200000000000000000000000000000000000000000000000000000000000000000000000E0
:0200000490501A
:0C000000000204C81193110104D107C8CC
:0200000490600A
:0100000001FE
:00000001FF