:400000000010002011000000CD030000CD03000080B500AF00F0DEF980B584B000AF021CFB1D1A70224A3B1C0B3312781A70214A3B1C0A3312781A701F4B1B68013BFB60B0
:400040001AE01E4B1868391C0B31FA68131C5B009B18C31801331B780B70184B1868391C0A31FA68131C5B009B18C31802331B780B70FB68013BFB60FB68002B0ADB0F4B59
:400080001968FA68131C5B009B185B5CFA1D12789A42D6D90A4B3A1C0B3212781A60094B3A1C0A3212781A60BD4604B080BDC046CCF1FF0FCDF1FF0F6C140000CC0000206A
:4000C0001CFF0B4020FF0B4080B500AF1B4B1B4A12688021C9020A431A601820FFF79CFF174B19221A60052000F032FB154B164A1278D2B21A60052000F03AFB0F4B0F4A6D
:400100001168124A0A401A60114B20221A60114B20221A60104B10221A60104B802212061A600F4B802212061A600E4B0E4A1A600E4B0F4A1A60BD4680BDC04600010B40E9
:400140002CFF0B4028FF0B40E5F1FF0FFFFFFBFF080202400C0202403002024008010B4004010B40000002400100008040000240CF00008080B582B000AF72B6FB1D0022FB
:400180001A7023E0FB1D1A78131C5B009B185B003A4A9B183B603B681A78597809020A43997809040A43DB781B0613431A1C3B6819795B791B020B439BB2101C191C00F0C3
:4001C0008DF9FB1DFA1D127801321A70FB1D1B78012BD7D92A4A2B4B101C191C00F08EF9294B802252001A80284B01221A70284B284A1A60284B49221A60284B284A1A6082
:40020000284B49221A60284B02221A60274B284A1A60284B02221A60274B284A1A60284BA82292031A60274B992212041A60264B992212041A60254BA82292031A60244B0B
:40024000992212041A60234B224A1278D2B202210A43D2B21A701F4B1E4A1278D2B206210A43D2B21A701C4BA4221A70FFF72CFF00F084F9BD4602B080BDC0468C12000090
:4002800098120000B812000000600F4002600F400C00014099EE00000800044008010440006C1B00080204400003044008030440B10D00001803044000500F400400990039
:4002C00004500F4010500F4020500F4024500F4030500F4000700F405B320F4010B5064C2378002B07D10548002802D0044800E000BF0121217010BD4801002000000000F0
:400300007C12000008B5084B002B03D00748084900E000BF07480168002903D0064A002A00D0904708BDC046000000007C1200004C010020C80000200000000090B585B0E5
:4003400000AF00F067F900F03DFA3B1C0F3300221A703B1C0F331B78181C00F0B7FA00E0C0463C1C0E3400F097F9031C23703B1C0E331B78002BF3D03C1C0C3400F07CF949
:40038000031C23803B1C0C331B88391D0D4A081C052100F05FFB3B1D181C00F07DFA0A4B181C00F079FA3B1C0F333A1C0F32127801218A1A1A703B1C0F331B78181C00F0C8
:4003C00085FACDE7801200008812000080B500AFFEE7C04680B586B000AF254B7B61254B3B61234B7B61234B3B6132E03B691B68FB603B695B68BB603B699B683B6000238E
:400400007B600CE0FB681A68BB681A60BB680433BB60FB680433FB607B6804337B607A683B689A42EED13B69DB683B6000237B6008E0BB6800221A60BB680433BB607B6875
:4004400004337B607A683B689A42F2D13B6910333B617B695A1E9341DBB27A69013A7A61002BC3D100F0BEFAFFF768FFFEE7C04601000000CC14000080B582B000AF002344
:400480007B600FE07B68032B04D8104B7A689200D35800E00E4B0F4A796889008B507B6801337B607B682F2BECD9FFF763FE0A4B00221A608023DB058022D20512680121E0
:4004C0000A431A60BD4602B080BDC04600000000CD03000000000020C000002080B582B000AF786039607A683B68101C00211A1C00F0A7FABD4602B080BDC04680B586B0EA
:4005000000AF7860396000233B6100237B612EE07B699B007A68D3181B68BB603B1C0F33BA681A70BB68FF229343BB6017E03B695B003A68D3181B781A1CBB68D3183A696E
:40054000520039688A1852781A703B6901333B613B1C0F333A1C0F321278013A1A703B1C0F331B78002BE2D17B6901337B617B69072BCDD9BD4606B080BDC04680B500AF05
:40058000BD4680BD80B500AF084B0F221A7000F09BF800F051F800F05FF8054B00221A70044B00221A70BD4680BDC04682000F4080000F4083000F4090B583B000AFFC1D17
:4005C00000F0CFF8031C23700F4B0F4A1278D2B220210A43D2B21A700C4B0C4A1278D2B210210A43D2B21A70094B094A1278D2B210210A43D2B21A70FB1D1B78181C00F0DE
:40060000B4F8BD4603B090BD92000F4090000F4093000F4080B500AF064B1B78002B04D1FFF7B0FF034B01221A70FFF7C5FFBD4680BDC0466401002080B582B000AF054A17
:40064000FB1D12781A70FB1D1B78181CBD4602B080BDC04660000F4080B582B000AF054AFB1D12781A70FB1D1B78181CBD4602B080BDC04663000F4080B582B000AF054A49
:40068000BB1D12881A80BB1D1B88181CBD4602B080BDC046A4100F4080B582B000AF094B1B78DBB21A1C0823134001D0012300E00023FA1D1370FB1D1B78181CBD4602B020
:4006C00080BDC04663000F4090B583B000AF01E01A4B1B881A4B1B78DBB21A1C08231340F6D1FC1D00F03DF8031C2370154B154A1278D2B203210A43D2B21A70114B114A02
:400700001278D2B203218A43D2B21A700E4B0E4A1278D2B203210A43D2B21A700A4B0A4A1278D2B203218A43D2B21A70FB1D1B78181C00F01AF8BD4603B090BDA4100F40D1
:4007400063000F4092000F4093000F40000000000230800804D0C0460138FDD1C046C0467047EFF3108072B6704780F31088704780B582B000AF021CBB1D1A80BB1D1B8872
:40078000044A12785343181CFFF7E2FFBD4602B080BDC046D800002080B500AF00F028F8BD4680BD80B500AF054B054A1268802109060A431A6000F017F8BD4680BDC046E3
:4007C0000000074080B500AF064B1B78002B04D1FFF7E2FF034B01221A70FFF7E3FFBD4680BDC0466801002080B500AFBD4680BD80B500AF174B184A1A60184B00221A602C
:40080000174B01221A60174B174A1A60174B07221A60174B00221A60164B01221A60164B114A1A60154B00221A60154B00221A60144B00221A60144B00221A60134B0022D7
:400840001A60134B00221A60124B00221A60BD4680BDC046000007400B000002400007404800074000030740070000800403074010030740440007400002074004020740C1
:40088000880E0740C80E0740480F0740080F0740C80F0740880F074080B584B000AF78600023FB6009E07A68FB68D3181B78181C00F032F8FB680133FB607A68FB68D318BC
:4008C0001B78002BEFD1BD4604B080BD80B584B000AF021CFB1D1A700E4B1B68DAB23B1C0F3340218A431A70FB1D1B789B01DAB240231340D9B23B1C0F333A1C0F32127827
:400900000A431A70034B3A1C0F3212781A60BD4604B080BD0001044080B582B000AF7860C046064B1A680F231340082BF9D0044B7A681A60BD4602B080BDC0460802074082
:4009400040020740002934D00123002210B488422CD301242407A14204D2814202D209011B01F8E7E400A14204D2814202D249005B00F8E7884201D3401A1A434C08A04207
:4009800002D3001B5C0822438C08A04202D3001B9C082243CC08A04202D3001BDC082243002803D01B0901D00909E3E7101C10BC7047002801D00020C04307B4024802A1E1
:4009C0004018029003BDC046190000000029F0D003B5FFF7B9FF0EBC4243891A1847C0467047C04670B50E4B0E4D0024E81A85101E1CAC4204D0A100725890470134F8E7E5
:400A000000F052FD0849094A0E1C541AA5100024AC4204D0A300F05880470134F8E770BDB4140000B4140000B4140000BC14000010B50023934203D0CC5CC4540133F9E7A1
:400A400010BD00B58218031C934202D019700133FAE700BD0CB430B5164B9DB00C1C1D6804D58B200122286050421DE002A9822293000290086100208B81844200D0601E5E
:400A80000122534288604861CB81209A21AB281C019300F069F8421C01DA8B212960002C02D0029D00242C701DB030BC08BC02B01847C04644010020F7B501919168071CD4
:400AC000141C002940D190239289D80002423BD02568216963696E1A58000096C6180098F50FAB1901305D10A84201DB009D0235381C53050FD5291C00F004FB061E13D0FD
:400B00002169009AFFF794FFA7891649802239401143A18111E02A1C00F04AFB061E0CD1381C216900F0A6FA0C203860A58940263543A5810124604213E0009B6561F018F4
:400B4000ED1A26612060A560A668002E08DD694627680A793A70A3680137013B2760A3600020FEBD7FFBFFFFF0B5A1B0049007938B890E1C171C19060FD53269002A0CD140
:400B8000402100F0BFFA30603061002803D1049C0C262660D6E04020706108AD00212024302369616C76AB763C1C2278002A04D1E01B069019D003970FE0252AF8D0013455
:400BC000F3E70399321C09780498FFF775FF039A01320392013000D1AFE003990698CB1B8342EEDB0D9F3A180D922178002900D1A3E001206A4600234742633201342B6081
:400C0000EB606F60AB601370AB65504F2178381C052200F0C1FA002807D0C71B2B680120B840184328600134EFE72B68D90603D568462021633001701A0703D56A462B27EB
:400C40006332177021782A2901D00B9B0EE0079A1068111D0791002801DB0B9004E0022247421343EF602B60013409E020783038092804D80A277B4301341B18F6E70B93CB
:400C800023782E2B18D161782A2909D1079B02341A68191D0791002A0DDA012042420AE00134002220783038092804D80A277A4301341218F6E70992254F2178381C0322DA
:400CC00000F06AFA002806D02B68C21B4021914019432960013421781E4806222976671C00F05AFA002817D01B4800280BD12868079C0723C10501D5E41800E007349C43F4
:400D00000834079414E007AA00920498291C321C124B00E000BF07E007AC00940498291C321C0E4B00F08CF8059005994A1C04D00D99059A8C180D9436E7B589690601D4BA
:400D40000D9801E00127784221B0F0BD72140000781400007C14000000000000B90A0000F7B5151C01930A698B6800900C1C934200DA131C201C2B6043300178002901D00E
:400D800001332B602668B00602D52F6802372F602268062616401CD0261C4336377822683E1C731E9E4192061CD5A319181C40303021271CC17045373A784133DA70023672
:400DC00010E0617E0098019A089FB847013006D00136E3682868191A8E42F2DBDCE7012040422CE00027B7420ADAE119433109780098019A089B98470130F0D00137F2E746
:400E00002B68256806212940E6680025042903D1F01AC743FD170540A2682669B24201DD931BED180027AF4208DAA17E0098019A089EB0470130D2D00137F4E70020FEBD59
:400E4000F0B50D1C8BB0433507930590069204950A7E0C1C109B6E2A00D1A8E012D8632A24D009D8002A00D1B1E0582A00D0C1E045310A707D4D51E0642A1FD0692A00D0AF
:400E8000B8E01BE0732A00D1A5E009D86F2A2BD0702A00D0AEE00A68202616430E6038E0752A21D0782A00D0A4E032E018680E1C051D1D600368423633709EE026681F68AE
:400EC000300606D4750604D5381D186000203D5E02E03D1D1D603D68644B002D3BDA04992D226D420A7036E027681E683D0605D4780603D5351D1D60358802E0311D1960D0
:400F000035685A4B207E039308276F281ED00A271CE0271C45377820554D38701A682668111D03951960300603D4750601D5158800E01568F00702D520231E4326601027E3
:400F4000002D03D12668202086432660261C43360022327001E003930A276168A160002903DB2068042398432060002D02D1049E00290ED0049E281C391CFFF727FD039AB6
:400F8000013E515C281C3170391CFFF7DBFC051EF1D1049B9A1B2261082F33D12768F80730D5606890422DDC013262602AE008681E684969050606D4450604D5351D1D6092
:400FC0003368198003E0321D1A603768396000202061049E16E01E68311D19603668301C00F01EF965682061A84200D925612369636004E0261C4236327001212161049FF5
:4010000000223A7007990598009109AA211C069BFFF7A6FE01300CD0351C2269AB1B93420ADA29780598069A079FB84701350130F3D10122504217E02668B10705D4099B66
:40104000E068984210DA181C0EE00025E7680998391A8D42F3DA617E0598069A079EB0470130E6D00135F1E70BB0F0BD831400009414000030B5002940D004390B68002BF1
:4010800000DAC9181E4A1368141C002B02D14B60116033E099420FD20D684A199A4205D110682B1855680B604D6000E04B60216024E08A4203D8131C5A68002AF9D11D683E
:4010C0005C198C420BD10C682D1958191D60904214D1116852686C181C605A600EE08C4202D90C21016009E008680D18954203D114685268001908604A60596030BDC0462A
:401100007001002070B50323CD1C9D430835061C0C2D01D20C2501E0002D2DDB8D422BD31C4A1368111C1C1C002C12D02068421B0CD40B2A02D92260A41815E0A34202D177
:4011400066680E601CE065685D6019E0231C6468EAE7301C291C00F051F8421C0CD0C41C03218C43844201D1256009E0211A301C00F044F80130F7D10C243460002008E083
:40118000201C0B300722211D9043431A01D05D42E55070BD7001002000B5C9B28218904204D003788B4202D00130F8E7002000BDF8B5061C0C1C151C002904D1111CFFF7FE
:4011C000A1FF041C18E0002A03D1FFF753FF2C1C12E000F02CF8A8420ED2301C291CFFF791FF071E07D0211C2A1CFFF721FC301C211CFFF73FFF3C1C201CF8BD38B5074CEA
:401200000023051C081C236000F01CF8431C03D12168002900D0296038BDC046780100200023C25C0133002AFBD1581E704704390B6800B5181F002B02DAC8581918081F3A
:4012400000BD00000A4A00B51368002B0CD018186946884202D81060181C00BD054B0C2201201A604342F7E7034B1360EFE7C046740100207801002080010020000000005A
:4012800025303458000000000D0A000000300F40000400400F40000403000F401D300F4025310F404D320F403F330F4004400F4003410F4002600F408047820F83780001D3
:4012C00013011D011E012301320137013E043F405441580459045B045F018B049F01A104A502A601B102B304B601B701BF05D608D804D904DB04DF01000101800202084855
:401300000904162018101F80224024012584260228402F903001318034403E2058145A805C805D045E2260106441650466608D10C008C201C420CAC1CC19CE20D6FED8F221
:40134000E41009010C410E901101121E150118C11A041CC11E022101222124C1260827013020328034403501361F3E543F10400241054220440149FF4AFF4BFF4C024E70A0
:401380004F0C508C511056025720580459045A245B245C085D885E085F11684069016AC06B018001B601BE40C002C105C220C401C50EC6DFC7C0C82DC9FFCAFFCBFFCC23A6
:4013C000CEF0CF0CD08CD110D420D804DA24DB04DD08DF11E840E901EAC0EB010280070108800B020E89170618011C101DA01E8026102C202D042E01360437013E1041A0F7
:4014000045A049084A024E02502052805301580160096104641065886E196F0578017A807B087D207F188C108E0193209504980899849B029C90A110A202A611AB02AF1022
:40144000B004B240C088C2D0C430CAC0CCC0CE20D03CD218D601D81EDE64034807808F80C070AB40AF08ECC010011101040000004300232D302B2000686C4C0065666745C4
:4014800046470030313233343536373839414243444546003031323334353637383961626364656600000000F8B5C046F8BC08BC9E4670470503000079040000F8B5C0469D
:4014C000F8BC08BC9E467047DD020000E0140000C800002080000000380000000000000000000000C0F1FF0F00366E01C05D0000180000000000E02E0000000000000000BF
:401500000000000000000000000000000000000000000000000000007014000000000000000000000000000000000000000000000000000000000000000000000000000027
:4015400000000000000000000000000000000000000000000000000000000000E000002000000000000000000000000000000000000000000000000000000000000000006B
:40158000000000000000000000000000000000000000000000000000000000000000000000000000000000000000000000000000000000000000000000000000000000002B
:4015C00000000000000000000000000000000000000000000000000000000000000000000000000000000000000000000000000000000000000000000000000000000000EB
:4016000000000000000000000000000000000000000000000000000000000000000000000000000000000000000000000000000000000000000000000000000000000000AA
:40164000000000000000000000000000000000000000000000000000000000000000000000000000000000000000000000000000000000000000000000000000000000006A
:0200000490303A
:02000000BC61E1
:0200000490402A
:200000000000000000000000000000000000000000000000000000000000000000000000E0
:0200000490501A
:0C000000000204C81193110104CECDF4DD
:0200000490600A
:0100000001FE
:00000001FF