:400000000010002011000000790700007907000080B500AF00F0B4FB80B584B000AF021CFB1D1A70224A3B1C0B3312781A70214A3B1C0A3312781A701F4B1B68013BFB6078
:400040001AE01E4B1868391C0B31FA68131C5B009B18C31801331B780B70184B1868391C0A31FA68131C5B009B18C31802331B780B70FB68013BFB60FB68002B0ADB0F4B59
:400080001968FA68131C5B009B185B5CFA1D12789A42D6D90A4B3A1C0B3212781A60094B3A1C0A3212781A60BD4604B080BDC046CCF1FF0FCDF1FF0F8C1B0000D00000203F
:4000C0001CFF0B4020FF0B4080B500AF1B4B1B4A12688021C9020A431A601820FFF79CFF174B19221A60052000F00EFD154B164A1278D2B21A60052000F0EAFD0F4B0F4ADD
:400100001168124A0A401A60114B20221A60114B20221A60104B10221A60104B802212061A600F4B802212061A600E4B0E4A1A600E4B0F4A1A60BD4680BDC04600010B40E9
:400140002CFF0B4028FF0B40E5F1FF0FFFFFFBFF080202400C0202403002024008010B4004010B40000002400100008040000240CF00008080B582B000AF72B6454B012282
:400180001A70FB1D00221A7023E0FB1D1A78131C5B009B185B00404A9B183B603B681A78597809020A43997809040A43DB781B0613431A1C3B6819795B791B020B439BB24A
:4001C000101C191C00F060FBFB1DFA1D127801321A70FB1D1B78012BD7D9304A304B101C191C00F061FB2F4B802252001A802E4B01221A702D4B2E4A1A602E4B49221A60BE
:400200002D4B2E4A1A602E4B2E4A1A602E4BFF221A602E4B02221A602D4B2E4A1A602E4B02221A602D4B2E4A1A602E4BA82292031A602D4B992212041A602C4B9922120476
:400240001A602B4BAA2212041A602A4B992212041A60294B03221A60284B02221A60284B274A1278D2B202210A43D2B21A70244B234A1278D2B206210A43D2B21A70214B06
:40028000A4221A70FFF720FF00F04EFBBD4602B080BDC0461C700F40CC190000D8190000F819000000600F4002600F400C00014099EE00000800044008010440006C1B0092
:4002C00008020440490200000C0204400003044008030440B10D00001803044000500F400400990004500F4010500F4020500F4024500F4030500F402000004000800F4052
:4003000000700F405B320F4010B5064C2378002B07D10548002802D0044800E000BF0121217010BD5001002000000000A019000008B5084B002B03D00748084900E000BF44
:4003400007480168002903D0064A002A00D0904708BDC04600000000A019000054010020C80000200000000080B500AF0F4B00221A800F4B00221A800E4B1B78002B09D1C6
:400380000D4B00221A800D4B00221A800C4B01221A8008E00B4B00221A800B4B00221A800A4B01221A80BD4680BDC0466C0100206E01002074010020940300209401002080
:4003C0007001002094070020940500207201002080B500AF044B1B78022B03D1034B181C00F00AFDBD4680BD74010020A419000080B588B002AF00237B612D4B1B78002B40
:4004000025D100237B6117E02A4B7A695200D35A1BB2294A796949008A5A10B2391D274A0090081C0E2100F0A7FE3B1D181C00F0E3FC7B6901337B61214B1B881A1C7B6931
:400440009A42E1DC1F4B181C00F0D6FC2CE0184B1B78012B24D100237B6117E01A4B7A695200D35A1BB2194A796949008A5A10B2391D124A0090081C0E2100F07DFE3B1D4A
:40048000181C00F0B9FC7B6901337B61104B1B881A1C7B699A42E1DC0E4B181C00F0ACFC0D4B181C00F0A8FCBD4606B080BDC046740100209403002094010020AC190000B7
:4004C00070010020B4190000940700209405002072010020BC190000C419000090B589B002AF3C1C163400F0B7FA031C23803B1C16331B88F02213439BB21B0A9AB23B1CF1
:4005000015331A703B1C16331B88DBB20F221343DAB23B1C14331A70484B1B68012B00D088E0474B1B78002B35D1464B1A88464B1B889A422FD23B1C15331B785BB29AB23F
:40054000424B1B889BB2D3189BB29AB23F4B1A803B1C14331B785BB29AB23D4B1B889BB2D3189BB29AB23A4B1A80364B1B881A1C364B1988374B5200D152324B1B881A1CE8
:40058000334B1988344B5200D1522E4B1B8801339AB22C4B1A802A4B1B78002B4AD02F4B1A88294B1B889A4244D23B1C15331B785BB29AB2254B1B889BB2D3189BB29AB29A
:4005C000224B1A803B1C14331B785BB29AB2204B1B889BB2D3189BB29AB21D4B1A801F4B1B881A1C194B19881D4B5200D1521B4B1B881A1C164B19881A4B5200D152174BE7
:400600001B8801339AB2154B1A800D4B1B78022B10D10E4B1B881BB20D4A128810B2391D114A0090081C0E2100F0A6FD3B1D181C00F0E2FBBD4607B090BDC0467801002002
:400640007401002070010020CC0000206C0100206E0100209403002094010020720100209407002094050020AC19000090B583B000AF012000F008FBFC1D00F0BBFC031CFA
:400680002370FB1D1A7801231340DBB2002B0BD1234B1B68002B07D1FFF766FE204B01221A60FFF795FE0FE0FB1D1A7801231340DBB2002B08D01A4B1B68012B04D1184B27
:4006C00000221A60FFF794FEFB1D1A7802231340DBB2002B03D1134B00221A700DE0FB1D1A7804231340DBB2002B03D10D4B01221A7002E00B4B02221A700B4B1B78181C79
:4007000000F094FB084B1B780122D31ADAB2064B1A7000F065FC00F07BFCBD4603B090BD78010020740100207C01002080B500AFFFF71AFE00F056F900F0F4FA00F064F9FB
:400740000A4B181C00F098FB094B181C00F0EEFB62B6084B1B78181C00F068FB054B1B780122D31ADAB2034B1A70FEE7DD0400006D0600007C01002080B500AFFEE7C0468B
:4007800080B586B000AF254B7B61254B3B61234B7B61234B3B6132E03B691B68FB603B695B68BB603B699B683B6000237B600CE0FB681A68BB681A60BB680433BB60FB68D7
:4007C0000433FB607B6804337B607A683B689A42EED13B69DB683B6000237B6008E0BB6800221A60BB680433BB607B6804337B607A683B689A42F2D13B6910333B617B6936
:400800005A1E9341DBB27A69013A7A61002BC3D100F07AFCFFF78AFFFEE7C04601000000EC1B000080B582B000AF00237B600FE07B68032B04D8104B7A689200D35800E085
:400840000E4B0F4A796889008B507B6801337B607B682F2BECD9FFF78DFC0A4B00221A608023DB058022D205126801210A431A60BD4602B080BDC046000000007907000046
:4008800000000020C000002080B582B000AF786039607A683B68101C00211A1C00F063FCBD4602B080BDC04680B586B000AF7860396000233B6100237B612EE07B699B008C
:4008C0007A68D3181B68BB603B1C0F33BA681A70BB68FF229343BB6017E03B695B003A68D3181B781A1CBB68D3183A69520039688A1852781A703B6901333B613B1C0F3320
:400900003A1C0F321278013A1A703B1C0F331B78002BE2D17B6901337B617B69072BCDD9BD4606B080BDC04680B500AFBD4680BD80B500AF0E4B0F221A70002000F084F972
:400940000C4B0020191C00F0EFF80020032100F011F900F091F800F05FF800F06DF8064B00221A70054B08221A70BD4680BDC04682000F40FD0A000083000F4081000F40E0
:4009800090B583B000AFFC1D00F0C7F8031C2370114B114A1278D2B220210A43D2B21A700E4B0E4A1278D2B210210A43D2B21A700B4B0B4A1278D2B210210A43D2B21A70A5
:4009C000FB1D1B78181C00F0ACF8002000F026F9BD4603B090BDC04692000F4093000F4091000F4080B500AF064B1B78002B04D1FFF79EFF034B01221A70FFF7C1FFBD469A
:400A000080BDC0468001002080B500AF002000F005F9BD4680BDC04680B582B000AF054AFB1D12781A70FB1D1B78181CBD4602B080BDC04663000F4080B582B000AF054A1B
:400A4000FB1D12781A70FB1D1B78181CBD4602B080BDC04661000F4080B582B000AF054ABB1D12881A80BB1D1B88181CBD4602B080BDC046A4100F4090B583B000AF01E0A0
:400A80001A4B1B881A4B1B78DBB21A1C08231340F6D1FC1D00F041F8031C2370154B154A1278D2B203210A43D2B21A70114B114A1278D2B203218A43D2B21A700E4B0E4A79
:400AC0001278D2B203210A43D2B21A700A4B0A4A1278D2B203218A43D2B21A70FB1D1B78181C00F01EF8BD4603B090BDA4100F4061000F4092000F4093000F4080B500AF71
:400B0000BD4680BD000000000230800804D0C0460138FDD1C046C0467047EFF3108072B6704780F31088704780B584B000AF021C3960FB1D1A7080239B05FB60FB1D1B784A
:400B40001F2B02D9002000F095F8FB1D1B7810339B00FA68D3181B68BB60FB1D1B7810339B00FA68D3183A681A60BB68181CBD4604B080BD90B587B000AF0A1CFB1D011C7C
:400B80001970BB1D1A70BB1D1B78032B02D9002000F070F8FB1D1B781F2B02D9002000F069F8FB1D1A7803231340DB0006337B613C1C1334FFF7B1FF031C2370FB1D1B7868
:400BC0009B08DBB29B0014495B181B68FB607B690322111C99400B1CDA43FB681340FB60BB1D1A787B69111C99400B1CFA681343FB60FB1D1B789B08DBB29B00064A9B1811
:400C0000FA681A603B1C13331B78181CFFF789FFBD4607B090BDC04600E400E080B582B000AF021CFB1D1A70064BFA1D11781F220A400121081C9040021C1A60BD4602B070
:400C400080BDC04600E100E080B582B000AF021CFB1D1A70064BFA1D11781F220A400121081C9040021C1A60BD4602B080BDC04680E100E080B582B000AF021CFB1D1A7061
:400C800001BEBD4602B080BD80B582B000AF786008E00C4B1B68181CFFF736FF7B680A4A9B187B607A6880231B029A42F1D8074B1B687A685343181CFFF726FFBD4602B017
:400CC00080BDC046E00000200080FFFFD800002080B582B000AF021CBB1D1A80BB1D1B88044A12785343181CFFF70EFFBD4602B080BDC046DC00002080B500AF00F028F88D
:400D0000BD4680BD80B500AF054B054A1268802109060A431A6000F017F8BD4680BDC0460000074080B500AF064B1B78002B04D1FFF7E2FF034B01221A70FFF7E3FFBD46FE
:400D400080BDC0468401002080B500AFBD4680BD80B500AF174B184A1A60184B00221A60174B01221A60174B174A1A60174B07221A60174B00221A60164B01221A60164BA8
:400D8000114A1A60154B00221A60154B00221A60144B00221A60144B00221A60134B00221A60134B00221A60124B00221A60BD4680BDC046000007400B0000024000074062
:400DC0004800074000030740070000800403074010030740440007400002074004020740880E0740C80E0740480F0740080F0740C80F0740880F074080B584B000AF7860E8
:400E00000023FB6009E07A68FB68D3181B78181C00F014F9FB680133FB607A68FB68D3181B78002BEFD1BD4604B080BD80B584B000AF021CFB1D1A700E4B1B68DAB23B1C2C
:400E40000F3340218A431A70FB1D1B789B01DAB240231340D9B23B1C0F333A1C0F3212780A431A70034B3A1C0F3212781A60BD4604B080BD0001044080B582B000AF7860C3
:400E800000F04AF87B68181C00F008F8032000F011F800F037F8BD4602B080BD80B582B000AF7860024B7A685A64BD4602B080BD0000002090B585B000AF021CFB1D1A70F6
:400EC0000E23FB603C1C0B34FFF727FE031C23700A4B0A4A11680A4A1140FA1D1078FA68041C9440221C0A431A603B1C0B331B78181CFFF716FEBD4605B090BD00E400E012
:400F0000FF3FFFFF80B500AF024B02221A60BD4680BDC04600E100E080B500AF024B02221A60BD4680BDC04680E100E080B582B000AF786000F04AF87B68181C00F008F822
:400F4000032000F011F800F037F8BD4602B080BD80B582B000AF7860024B7A689A64BD4602B080BD0000002090B585B000AF021CFB1D1A701623FB603C1C0B34FFF7CDFD43
:400F8000031C23700A4B0A4A11680A4A1140FA1D1078FA68041C9440221C0A431A603B1C0B331B78181CFFF7BCFDBD4605B090BD00E400E0FFFF3FFF80B500AF024B042257
:400FC0001A60BD4680BDC04600E100E080B500AF024B04221A60BD4680BDC04680E100E080B500AF024B04221A60BD4680BDC04680E200E080B500AF044B1B68DAB20F234B
:401000001340DBB2181CBD4680BDC0460402044080B582B000AF084B1B68D9B2FB1D0F220A401A70044BFA1D12781A60FB1D1B78181CBD4602B080BD1002044080B582B080
:4010400000AF7860C046064B1A680F231340082BF9D0044B7A681A60BD4602B080BDC0460802074040020740002934D00123002210B488422CD301242407A14204D2814246
:4010800002D209011B01F8E7E400A14204D2814202D249005B00F8E7884201D3401A1A434C08A04202D3001B5C0822438C08A04202D3001B9C082243CC08A04202D3001B47
:4010C000DC082243002803D01B0901D00909E3E7101C10BC7047002801D00020C04307B4024802A14018029003BDC046190000000029F0D003B5FFF7B9FF0EBC4243891A5E
:401100001847C0467047C04670B50E4B0E4D0024E81A85101E1CAC4204D0A100725890470134F8E700F050FD0849094A0E1C541AA5100024AC4204D0A300F05880470134AC
:40114000F8E770BDD41B0000D41B0000D41B0000DC1B000010B50023934203D0CC5CC4540133F9E710BD00B58218031C934202D019700133FAE700BD0CB430B5164B9DB02B
:401180000C1C1D6804D58B200122286050421DE002A9822293000290086100208B81844200D0601E0122534288604861CB81209A21AB281C019300F069F8421C01DA8B217E
:4011C0002960002C02D0029D00242C701DB030BC08BC02B01847C04648010020F7B501919168071C141C002940D190239289D80002423BD02568216963696E1A58000096FA
:40120000C6180098F50FAB1901305D10A84201DB009D0235381C53050FD5291C00F004FB061E13D02169009AFFF794FFA7891649802239401143A18111E02A1C00F04AFB34
:40124000061E0CD1381C216900F0A6FA0C203860A58940263543A5810124604213E0009B6561F018ED1A26612060A560A668002E08DD694627680A793A70A3680137013BC8
:401280002760A3600020FEBD7FFBFFFFF0B5A1B0049007938B890E1C171C19060FD53269002A0CD1402100F0BFFA30603061002803D1049C0C262660D6E04020706108ADFC
:4012C00000212024302369616C76AB763C1C2278002A04D1E01B069019D003970FE0252AF8D00134F3E70399321C09780498FFF775FF039A01320392013000D1AFE003994C
:401300000698CB1B8342EEDB0D9F3A180D922178002900D1A3E001206A4600234742633201342B60EB606F60AB601370AB65504F2178381C052200F0C1FA002807D0C71B1F
:401340002B680120B840184328600134EFE72B68D90603D568462021633001701A0703D56A462B276332177021782A2901D00B9B0EE0079A1068111D0791002801DB0B90B0
:4013800004E0022247421343EF602B60013409E020783038092804D80A277B4301341B18F6E70B9323782E2B18D161782A2909D1079B02341A68191D0791002A0DDA012032
:4013C00042420AE00134002220783038092804D80A277A4301341218F6E70992254F2178381C032200F06AFA002806D02B68C21B4021914019432960013421781E4806229B
:401400002976671C00F05AFA002817D01B4800280BD12868079C0723C10501D5E41800E007349C430834079414E007AA00920498291C321C124B00E000BF07E007AC00947A
:401440000498291C321C0E4B00F08CF8059005994A1C04D00D99059A8C180D9436E7B589690601D40D9801E00127784221B0F0BD921B0000981B00009C1B000000000000DD
:40148000DD110000F7B5151C01930A698B6800900C1C934200DA131C201C2B6043300178002901D001332B602668B00602D52F6802372F602268062616401CD0261C433638
:4014C000377822683E1C731E9E4192061CD5A319181C40303021271CC17045373A784133DA70023610E0617E0098019A089FB847013006D00136E3682868191A8E42F2DB86
:40150000DCE7012040422CE00027B7420ADAE119433109780098019A089B98470130F0D00137F2E72B68256806212940E6680025042903D1F01AC743FD170540A268266965
:40154000B24201DD931BED180027AF4208DAA17E0098019A089EB0470130D2D00137F4E70020FEBDF0B50D1C8BB0433507930590069204950A7E0C1C109B6E2A00D1A8E00F
:4015800012D8632A24D009D8002A00D1B1E0582A00D0C1E045310A707D4D51E0642A1FD0692A00D0B8E01BE0732A00D1A5E009D86F2A2BD0702A00D0AEE00A682026164391
:4015C0000E6038E0752A21D0782A00D0A4E032E018680E1C051D1D600368423633709EE026681F68300606D4750604D5381D186000203D5E02E03D1D1D603D68644B002D45
:401600003BDA04992D226D420A7036E027681E683D0605D4780603D5351D1D60358802E0311D196035685A4B207E039308276F281ED00A271CE0271C45377820554D3870B6
:401640001A682668111D03951960300603D4750601D5158800E01568F00702D520231E4326601027002D03D12668202086432660261C43360022327001E003930A27616886
:40168000A160002903DB2068042398432060002D02D1049E00290ED0049E281C391CFFF727FD039A013E515C281C3170391CFFF7DBFC051EF1D1049B9A1B2261082F33D193
:4016C0002768F80730D5606890422DDC013262602AE008681E684969050606D4450604D5351D1D603368198003E0321D1A603768396000202061049E16E01E68311D196097
:401700003668301C00F01EF965682061A84200D925612369636004E0261C4236327001212161049F00223A7007990598009109AA211C069BFFF7A6FE01300CD0351C22699D
:40174000AB1B93420ADA29780598069A079FB84701350130F3D10122504217E02668B10705D4099BE068984210DA181C0EE00025E7680998391A8D42F3DA617E0598069A7F
:40178000079EB0470130E6D00135F1E70BB0F0BDA31B0000B41B000030B5002940D004390B68002B00DAC9181E4A1368141C002B02D14B60116033E099420FD20D684A191B
:4017C0009A4205D110682B1855680B604D6000E04B60216024E08A4203D8131C5A68002AF9D11D685C198C420BD10C682D1958191D60904214D1116852686C181C605A601B
:401800000EE08C4202D90C21016009E008680D18954203D114685268001908604A60596030BDC0468C01002070B50323CD1C9D430835061C0C2D01D20C2501E0002D2DDBDA
:401840008D422BD31C4A1368111C1C1C002C12D02068421B0CD40B2A02D92260A41815E0A34202D166680E601CE065685D6019E0231C6468EAE7301C291C00F051F8421CC8
:401880000CD0C41C03218C43844201D1256009E0211A301C00F044F80130F7D10C243460002008E0201C0B300722211D9043431A01D05D42E55070BD8C01002000B5C9B23E
:4018C0008218904204D003788B4202D00130F8E7002000BDF8B5061C0C1C151C002904D1111CFFF7A1FF041C18E0002A03D1FFF753FF2C1C12E000F02CF8A8420ED2301CF6
:40190000291CFFF791FF071E07D0211C2A1CFFF721FC301C211CFFF73FFF3C1C201CF8BD38B5074C0023051C081C236000F01CF8431C03D12168002900D0296038BDC046DC
:40194000940900200023C25C0133002AFBD1581E704704390B6800B5181F002B02DAC8581918081F00BD00000A4A00B51368002B0CD018186946884202D81060181C00BDCB
:40198000054B0C2201201A604342F7E7034B1360EFE7C046900100209409002098090020000000003A460D0A0000000025692025690D0A003A520D0A000000003A560D0AAB
:4019C000000000003A450D0A0000000000300F40000400400F40000403000F4019300F401A310F404A320F403B330F4008400F4005410F4002600F408178820F83470008F6
:401A000007010C05120126082E07300232043408360137013E545608580459045B045F01A001B001BE01D420D604D804DB04DF010041080212111501185019A01F0120013C
:401A4000380458845B215D016006621163106520675279017A808740C009C208C415CE02D68FD8FF00410290121E14C11501160818C119011A041CC11D011E022102222199
:401A80002B012D0130203102324033013480361F3E543F05400341044230440149FF4AFF4BFF4C024E704F0C508C51105602572C580459045A245B245C085D885E085F1156
:401AC000684069016AC06B01C003C104C230C405C6EFC7CDC83CC9FFCAFFCBFFCC23CEF0CF0CD08CD110D441DA24DB04DD08DF11E840E901EAC0EB01042205200EAA170203
:401B00001C021D881E84250227202C042F8A310336143740410A458A4801501051015280530859A4601065016C016E2A6F427A087E18848085018A088C028D049010922084
:401B40009604980299809B029C849F20A380A680AA10AB82AE04AF01C010C2F0C410CAB0CC70D0D3D208D60ED882DE64E4800040034006206E808640C070DA80E6408A20E6
:401B80009A20A840AB40ECA010011101040000004300232D302B2000686C4C0065666745464700303132333435363738394142434445460030313233343536373839616241
:401BC0006364656600000000F8B5C046F8BC08BC9E4670473103000025080000F8B5C046F8BC08BC9E46704709030000001C0000C80000208800000048080000000000007E
:401C00000000000000010000C0F1FF0F00366E01C05D0000180000000000E02E0000000000000000000000000000000000000000000000000000000000000000901B000051
:401C40000000000000000000000000000000000000000000000000000000000000000000000000000000000000000000000000000000000000000000000000000000000064
:401C8000E400002000000000000000000000000000000000000000000000000000000000000000000000000000000000000000000000000000000000000000000000000020
:401CC00000000000000000000000000000000000000000000000000000000000000000000000000000000000000000000000000000000000000000000000000000000000E4
:401D000000000000000000000000000000000000000000000000000000000000000000000000000000000000000000000000000000000000000000000000000000000000A3
:401D40000000000000000000000000000000000000000000000000000000000000000000000000000000000000000000000000000000000000000000000000000000000063
:401D80000000000000000000000000000000000000000000000000000000000000000000000000000000000000000000000000000000000000000000000000000000000023
:0200000490303A
:020000003D764B
:0200000490402A
:200000000000000000000000000000000000000000000000000000000000000000000000E0
:0200000490501A
:0C000000000204C81193110104D14F0943
:0200000490600A
:0100000001FE
:00000001FF