:017B00000084
:017C00000083
:02000000804E30
:100050001203720A0D57656C636F6D6520746F2013
:10006000746865206D6F74696F6E206D6163686977
:100070006E65210075812F12032012013212016773
:1000800075100F75110312027C12030AC2AF120120
:10009000161201D87402120123F87403120123F915
:1000A000AA1AAB1B120351881A891B74041201236C
:1000B000F87405120123F9AA1CAB1D120351881C08
:1000C000891D1203720A0D2800E51B120391E51A1F
:1000D0001203911203722C2000E51D120391E51CFE
:1000E000120391120372292000120345AA00AB01EA
:1000F000A81AA91B1203451203517B007A101203A0
:1001000058408E1203720A0D4869742100120128AA
:10011000120116020091751A00751B00751C0075FE
:100120001D0022907B009322851A10851C1112035A
:100130000D22C0E0D2B4D290D29274905407F874D9
:1001400001120362F512F4F51374915407F8740167
:10015000120362F514F4F51574925407F874011241
:100160000362F516D0E0221201A7751762C0177559
:1001700017FFD517FDD017D517F37510021202918E
:100180001202B205101202911202B205101202916F
:100190001202B205101202911202B205101202915F
:1001A0001202B21201B22275103A75115A12027C73
:1001B0002222751020120291E5111202B2C2E0F55E
:1001C0001112027C22751020120291E5111202B266
:1001D000D2E0F51112027C22C0E0C2B474D0120247
:1001E000C074501202C01202B974501202C0907B47
:1001F0000075187B75190E120266D2B4751002755F
:10020000110012027CD0E022C0E01201A71201B25C
:10021000C2B474921202C074931202C01202AB7480
:10022000921202C074C51202C0D2B41202AB75178A
:10023000FE12036EC2B474021202C075174012039C
:100240006E1202E71202B230E0EC74641202C012C5
:1002500002B91202B9907C0075187F7519841202D8
:1002600066D2B4D0E0221202E7F0A3751708120399
:100270006EE582B519F0E583B518EB22C0E0C2B493
:10028000E51044801202C0E5111202C0D2B4D0E0E1
:1002900022C0E0C2B4E510547F1202C01202B9D2EB
:1002A000921202E7F511D2B4D0E022751740120382
:1002B0006E2275170A12036E2275174012036E2202
:1002C000C000780823C0E030E008E59055134514DD
:1002D0008008E590551355158000F5904512F5906E
:1002E000D0E0D8E0D00022C000C291780823C0E05E
:1002F000E5135290E5124290D0E0309204D2E080B3
:1003000004C2E08000D8E6D00022D29722C0E0C22A
:1003100097E5101202C0E5111202C0D297D0E02278
:10032000758920758841758DFD75985022C299F5A3
:10033000993099FD223098FDE599547FC29822307A
:10034000E702F40422E930E707E8F404F8E9F4F9F5
:1003500022E82AF8E93BF922E9B50305E8B50201EC
:10036000D322080323D8FD22082303D8FD22D51762
:10037000FD22D083D082E493B40002800612032DC4
:10038000A380F3740173740A12032D740D12032DEC
:1003900022C0E01203A012032DEA12032DD0E022A6
:1003A000FA540F24F650022407243ACAC4540F24E6
:1003B000F650022407243A221203351203CAC4F568
:1003C000F01203351203CA45F022C22E24D0501772
:1003D000C324F64003240A22C2E5C324F95008C30B
:0A03E00024FA4003540F22D22E220B
:00000001FF
