:017B00000084
:017C00000083
:02000000804E30
:1000500075812F12031912012D12016275100F758F
:100060001103120277120305C2AF12011B12036BB8
:100070000A0D57656C636F6D6520746F2074686539
:10008000206D6F74696F6E206D616368696E6521A4
:10009000001201D37402120128F87403120128F926
:1000A000AA1AAB1B12034A881A891B74041201286E
:1000B000F87405120128F9AA1CAB1D12034A881C0A
:1000C000891D12036B0A0D2800E51B12038AE51A2D
:1000D00012038A12036B2C2000E51D12038AE51C13
:1000E00012038A12036B29200012033EAA00AB01FF
:1000F000A81AA91B12033E12034A7B007A3012038E
:1001000051408E12036B0A0D4869742100A81AA988
:100110001BA81CA91D12011B020091751A00751B5A
:1001200000751C00751D0022907B009322C0E0D258
:10013000B4D290D29274905407F8740112035BF514
:1001400012F4F51374915407F8740112035BF5145B
:10015000F4F51574925407F8740112035BF516D088
:10016000E0221201A2751762C0177517FFD517FD9F
:10017000D017D517F375100212028C1202AD0510BC
:1001800012028C1202AD051012028C1202AD051083
:1001900012028C1202AD051012028C1202AD120175
:1001A000AD2275103A75115A12027722227510206D
:1001B00012028CE5111202ADC2E0F5111202772293
:1001C00075102012028CE5111202ADD2E0F5111269
:1001D000027722C0E0C2B474D01202BB7450120283
:1001E000BB1202B474501202BB907B0075187B7571
:1001F000190E120261D2B475100275110012027745
:10020000D0E022C0E01201A21201ADC2B474921279
:1002100002BB74931202BB1202A674921202BB7448
:10022000C51202BBD2B41202A67517FE120367C232
:10023000B474021202BB7517401203671202E21275
:1002400002AD30E0EC74641202BB1202B41202B4CC
:10025000907C0075187F751984120261D2B4D0E0C9
:10026000221202E2F0A3751708120367E582B5199E
:10027000F0E583B518EB22C0E0C2B4E5104480126B
:1002800002BBE5111202BBD2B4D0E022C0E0C2B47E
:10029000E510547F1202BB1202B4D2921202E2F5B0
:1002A00011D2B4D0E0227517401203672275170AE5
:1002B0001203672275174012036722C000780823D3
:1002C000C0E030E008E590551345148008E59055EE
:1002D0001355158000F5904512F590D0E0D8E0D088
:1002E0000022C000C291780823C0E0E5135290E5D7
:1002F000124290D0E0309204D2E08004C2E080004C
:10030000D8E6D00022D2B722C0E0C2B7E91202BBC1
:10031000E81202BBD2B7D0E02275892075884175FA
:100320008DFD75985022C299F5993099FD2230982B
:10033000FDE599547FC2982230E702F40422E930A7
:10034000E707E8F404F8E9F4F922E82AF8E93BF9C8
:1003500022E9B50305E8B50201D322080323D8FD3D
:1003600022082303D8FD22D517FD22D083D082E4B2
:1003700093B400028006120326A380F37401737401
:100380000A120326740D12032622C0E012039912EA
:100390000326EA120326D0E022FA540F24F6500274
:1003A0002407243ACAC4540F24F650022407243ADE
:1003B0002212032E1203C3C4F5F012032E1203C33C
:1003C00045F022C22E24D05017C324F64003240A3D
:1003D00022C2E5C324F95008C324FA4003540F2273
:0303E000D22E22F8
:00000001FF
