:017B00000084
:017C00000083
:02000000804E30
:1000500075812F1202DF1200FE120133C2AF751A32
:1000600000751B00751C00751D0012030E0A0D574C
:10007000656C636F6D6520746F20746865206D6FAB
:1000800074696F6E206D616368696E65210075101B
:100090000212024F120270E51130E7F275100312DE
:1000A000024FE511120270051012024FA811C3256C
:1000B0001AF51AE51B38F51B75100512024FE511EC
:1000C000120270051012024FA811C3251CF51CE581
:1000D0001D38F51D75100275110012023A120269E1
:1000E00012030E0A0D583A2000E51B12032DE51AE3
:1000F00012032D8099051ED51FFDD51EFA22C0E0E2
:10010000D2B4D290D29274905407F874011202FEC5
:10011000F512F4F51374915407F874011202FEF508
:1001200014F4F51574925407F874011202FEF516D2
:10013000D0E022120173751762C0177517FFD5172B
:10014000FDD017D517F375100212024F1202700579
:100150001012024F120270051012024F12027005A7
:100160001012024F120270051012024F120270128A
:10017000017E2275103A75115A12023A2222751028
:100180002012024FE511120270C2E0F51112023A7C
:100190002275102012024FE511120270D2E0F51103
:1001A00012023A22C0E0C2B474D012027E7450121D
:1001B000027E120277907B0075187B75190E120271
:1001C00024D2B4D0E022C0E012017312017EC2B486
:1001D000749212027E749312027E12026974921259
:1001E000027E74C512027ED2B41202697517FE1225
:1001F000030AC2B4740212027E75174012030A1277
:1002000002A512027030E0EC746412027E120277D2
:10021000120277907C0075187F751984120224D21F
:10022000B4D0E0221202A5F0A375170812030AE564
:1002300082B519F0E583B518EB22C0E0C2B4E51031
:10024000448012027EE51112027ED2B4D0E022C0B8
:10025000E0C2B4E510547F12027E120277D29212ED
:1002600002A5F511D2B4D0E02275174012030A227C
:1002700075170A12030A2275174012030A22C000DA
:10028000780823C0E030E008E59055134514800855
:10029000E590551355158000F5904512F590D0E086
:1002A000D8E0D00022C000C291780823C0E0E51356
:1002B0005290E5124290D0E0309204D2E08004C225
:1002C000E08000D8E6D00022D2B7851090C2B7D225
:1002D000B775174012030A851190C2B7D2B72275BD
:1002E0008920758841758DFD75985022C299F599C0
:1002F0003099FD223098FDE599547FC29822080379
:1003000023D8FD22082303D8FD22D517FD22D08350
:10031000D082E493B4000280061202ECA380F3744E
:100320000173740A1202EC740D1202EC22C0E01286
:10033000033C1202ECEA1202ECD0E022FA540F2441
:10034000F650022407243ACAC4540F24F65002245B
:1003500007243A221202F4120366C4F5F01202F4E2
:1003600012036645F022C22E24D05017C324F64053
:1003700003240A22C2E5C324F95008C324FA400327
:06038000540F22D22E22D0
:00000001FF
