:017B00000084
:017C00000083
:02000000804E30
:1000500075812F1202EE12010512013A75100F750B
:10006000110112024F1202DDC2AF751A00751B009A
:10007000751C00751D00751E00751F00752000752C
:10008000210012031D0A0D57656C636F6D652074A6
:100090006F20746865206D6F74696F6E206D616389
:1000A00068696E6521001201AB7402120100F874D8
:1000B00003120100F9C3E51A28F51AE51B39F51BEF
:1000C0007404120100F87405120100F9C3E51C283C
:1000D000F51CE51D39F51D12031D0A0D2800E51B51
:1000E00012033CE51A12033C12031D2C2000E51DEF
:1000F00012033CE51C12033C12031D29200080A6BC
:10010000907B009322C0E0D2B4D290D292749054EB
:1001100007F8740112030DF512F4F51374915407E6
:10012000F8740112030DF514F4F51574925407F8E0
:10013000740112030DF516D0E02212017A751762D0
:10014000C0177517FFD517FDD017D517F375100217
:100150001202641202850510120264120285051053
:100160001202641202850510120264120285051043
:100170001202641202851201852275103A75115A15
:1001800012024F2222751020120264E5111202851C
:10019000C2E0F51112024F22751020120264E5111F
:1001A000120285D2E0F51112024F22C0E0C2B474EF
:1001B000D0120293745012029312028C74501202E5
:1001C00093907B0075187B75190E120239D2B475A5
:1001D000100275110012024FD0E022C0E012017A25
:1001E000120185C2B4749212029374931202931294
:1001F000027E749212029374C5120293D2B4120258
:100200007E7517FE120319C2B47402120293751799
:10021000401203191202BA12028530E0EC74641223
:10022000029312028C12028C907C0075187F751953
:1002300084120239D2B4D0E0221202BAF0A37517A8
:1002400008120319E582B519F0E583B518EB22C051
:10025000E0C2B4E5104480120293E511120293D279
:10026000B4D0E022C0E0C2B4E510547F1202931271
:10027000028CD2921202BAF511D2B4D0E0227517D4
:10028000401203192275170A12031922751740121A
:10029000031922C000780823C0E030E008E590553B
:1002A0001345148008E590551355158000F59045C9
:1002B00012F590D0E0D8E0D00022C000C2917808BA
:1002C00023C0E0E5135290E5124290D0E030920452
:1002D000D2E08004C2E08000D8E6D00022D2B7226B
:1002E000C0E0C2B7E511120293D2B7D0E0227589FF
:1002F00020758841758DFD75985022C299F5993009
:1003000099FD223098FDE599547FC2982208032375
:10031000D8FD22082303D8FD22D517FD22D083D093
:1003200082E493B4000280061202FBA380F37401FE
:1003300073740A1202FB740D1202FB22C0E0120356
:100340004B1202FBEA1202FBD0E022FA540F24F611
:1003500050022407243ACAC4540F24F6500224073A
:10036000243A22120303120375C4F5F01203031298
:10037000037545F022C22E24D05017C324F6400343
:10038000240A22C2E5C324F95008C324FA400354C6
:050390000F22D22E2215
:00000001FF
