:017B00000084
:017C00000083
:02000000804E30
:100050001203830A0D57656C636F6D6520746F2002
:10006000746865206D6F74696F6E206D6163686977
:100070006E65210075812F12033112014512017A3C
:1000800075100F75110312028F12031DC2AF1201FA
:10009000161201EB7402120123F87403120123F902
:1000A000AA1AAB1B120362881A891B74041201235B
:1000B000F87405120123F9AA1CAB1D120362881CF7
:1000C000891D1203830A0D2800E51B1203A2E51AFD
:1000D0001203A21203832C2000E51D1203A2E51CCB
:1000E0001203A2120383292000120356AA00AB01B7
:1000F000A81AA91B1203561203627B007A2012036E
:1001000069408E1203830A0D486974210012012888
:10011000120116020091751A00751B00751C0075FE
:100120001D0022907B009322780079001203207832
:10013000007900120320A81AA91B120320A81CA9E9
:100140001D12032022C0E0D2B4D290D292749054F7
:1001500007F87401120373F512F4F5137491540740
:10016000F87401120373F514F4F51574925407F83A
:100170007401120373F516D0E0221201BA751762EA
:10018000C0177517FFD517FDD017D517F3751002D7
:100190001202A41202C505101202A41202C5051013
:1001A0001202A41202C505101202A41202C5051003
:1001B0001202A41202C51201C52275103A75115A15
:1001C00012028F22227510201202A4E5111202C51C
:1001D000C2E0F51112028F227510201202A4E5115F
:1001E0001202C5D2E0F51112028F22C0E0C2B4742F
:1001F000D01202D374501202D31202CC74501202E5
:10020000D3907B0075187B75190E120279D2B475E4
:10021000100275110012028FD0E022C0E01201BA64
:100220001201C5C2B474921202D374931202D31293
:1002300002BE74921202D374C51202D3D2B4120257
:10024000BE7517FE12037FC2B474021202D3751773
:100250004012037F1202FA1202C530E0EC746412FD
:1002600002D31202CC1202CC907C0075187F751953
:1002700084120279D2B4D0E0221202FAF0A37517E8
:100280000812037FE582B519F0E583B518EB22C0AB
:10029000E0C2B4E51044801202D3E5111202D3D2B9
:1002A000B4D0E022C0E0C2B4E510547F1202D312F1
:1002B00002CCD2921202FAF511D2B4D0E022751714
:1002C0004012037F2275170A12037F22751740120E
:1002D000037F22C000780823C0E030E008E5905595
:1002E0001345148008E590551355158000F5904589
:1002F00012F590D0E0D8E0D00022C000C29178087A
:1003000023C0E0E5135290E5124290D0E030920411
:10031000D2E08004C2E08000D8E6D00022D297224A
:10032000C0E0C297E91202D3E81202D3D297D0E01C
:1003300022758920758841758DFD75985022C29966
:10034000F5993099FD223098FDE599547FC29822A5
:1003500030E702F40422E930E707E8F404F8E9F4AE
:10036000F922E82AF8E93BF922E9B50305E8B502E4
:1003700001D322080323D8FD22082303D8FD22D568
:1003800017FD22D083D082E493B4000280061203CA
:100390003EA380F3740173740A12033E740D1203BA
:1003A0003E22C0E01203B112033EEA12033ED0E047
:1003B00022FA540F24F650022407243ACAC4540FD8
:1003C00024F650022407243A221203461203DBC407
:1003D000F5F01203461203DB45F022C22E24D05062
:1003E00017C324F64003240A22C2E5C324F95008A7
:0B03F000C324FA4003540F22D22E2237
:00000001FF
