:017B00000084
:017C00000083
:02000000804E30
:1000500075812F1202E51200F612012BC2AF751A3C
:1000600000751B00751C00751D001203140A0D5746
:10007000656C636F6D6520746F20746865206D6FAB
:1000800074696F6E206D616368696E65210012018D
:100090009C74021200E8F874031200E8F9C3E51A30
:1000A00028F51AE51B39F51B74041200E8F87405ED
:1000B0001200E8F9C3E51C28F51CE51D39F51D12F1
:1000C00003140A0D2800E51B120333E51A1203334B
:1000D0001203142C2000E51D120333E51C12033318
:1000E00012031429200080A6907B009322051ED5C0
:1000F0001FFDD51EFA22C0E0D2B4D290D2927490E5
:100100005407F87401120304F512F4F513749154B2
:1001100007F87401120304F514F4F51574925407EA
:10012000F87401120304F516D0E02212016B751762
:1001300062C0177517FFD517FDD017D517F37510C7
:1001400002120255120276051012025512027605AD
:10015000101202551202760510120255120276058F
:10016000101202551202761201762275103A75119C
:100170005A1202402222751020120255E511120275
:1001800076C2E0F51112024022751020120255E5E8
:1001900011120276D2E0F51112024022C0E0C2B480
:1001A00074D0120284745012028412027D745012B0
:1001B0000284907B0075187B75190E12022AD2B446
:1001C000751002751100120240D0E022C0E0120149
:1001D0006B120176C2B47492120284749312028478
:1001E00012026F749212028474C5120284D2B41285
:1001F000026F7517FE120310C2B4740212028475E6
:1002000017401203101202AB12027630E0EC746455
:1002100012028412027D12027D907C0075187F7597
:10022000198412022AD2B4D0E0221202ABF0A375D4
:100230001708120310E582B519F0E583B518EB2213
:10024000C0E0C2B4E5104480120284E511120284B9
:10025000D2B4D0E022C0E0C2B4E510547F120284D0
:1002600012027DD2921202ABF511D2B4D0E0227507
:1002700017401203102275170A1203102275174037
:1002800012031022C000780823C0E030E008E59097
:10029000551345148008E590551355158000F590C9
:1002A0004512F590D0E0D8E0D00022C000C291788D
:1002B0000823C0E0E5135290E5124290D0E030925E
:1002C00004D2E08004C2E08000D8E6D00022D2B799
:1002D000851090C2B7D2B7751740120310851190E0
:1002E000C2B7D2B722758920758841758DFD759882
:1002F0005022C299F5993099FD223098FDE5995424
:100300007FC29822080323D8FD22082303D8FD22A8
:10031000D517FD22D083D082E493B4000280061268
:1003200002F2A380F3740173740A1202F2740D12C4
:1003300002F222C0E01203421202F2EA1202F2D0EA
:10034000E022FA540F24F650022407243ACAC45477
:100350000F24F650022407243A221202FA12036CE8
:10036000C4F5F01202FA12036C45F022C22E24D01A
:100370005017C324F64003240A22C2E5C324F950CF
:0C03800008C324FA4003540F22D22E229E
:00000001FF
