:017B00000084
:017C00000083
:02000000804E30
:1000500075812F12031612012A12015F75100F7598
:100060001101120274120302C2AF12011812035ED0
:100070000A0D57656C636F6D6520746F2074686539
:10008000206D6F74696F6E206D616368696E6521A4
:10009000001201D07402120125F87403120125F92F
:1000A000AA1AAB1B120347881A891B740412012574
:1000B000F87405120125F9AA1CAB1D120347881C10
:1000C000891D12033BC000C001A81AA91B12033BE3
:1000D000D003D002120347E9C3940150B412035E67
:1000E0000A0D2800E51B12037DE51A12037D120399
:1000F0005E2C2000E51D12037DE51C12037D12031A
:100100005E292000A81AA91B120305A81CA91D120C
:100110000305120118020091751A00751B00751C69
:1001200000751D0022907B009322C0E0D2B4D290D3
:10013000D29274905407F8740112034EF512F4F53C
:100140001374915407F8740112034EF514F4F51565
:1001500074925407F8740112034EF516D0E022127F
:10016000019F751762C0177517FFD517FDD017D5FA
:1001700017F37510021202891202AA0510120289E1
:100180001202AA05101202891202AA05101202898F
:100190001202AA05101202891202AA1201AA2275DD
:1001A000103A75115A120274222275102012028917
:1001B000E5111202AAC2E0F5111202742275102094
:1001C000120289E5111202AAD2E0F511120274227C
:1001D000C0E0C2B474D01202B874501202B8120255
:1001E000B174501202B8907B0075187B75190E120D
:1001F000025ED2B4751002751100120274D0E022B2
:10020000C0E012019F1201AAC2B474921202B87423
:10021000931202B81202A374921202B874C51202A9
:10022000B8D2B41202A37517FE12035AC2B47402F4
:100230001202B875174012035A1202DF1202AA30D6
:10024000E0EC74641202B81202B11202B1907C00A8
:1002500075187F75198412025ED2B4D0E0221202A2
:10026000DFF0A375170812035AE582B519F0E5838C
:10027000B518EB22C0E0C2B4E51044801202B8E524
:10028000111202B8D2B4D0E022C0E0C2B4E51054DA
:100290007F1202B81202B1D2921202DFF511D2B46B
:1002A000D0E02275174012035A2275170A12035A1A
:1002B0002275174012035A22C000780823C0E0308C
:1002C000E008E590551345148008E5905513551541
:1002D0008000F5904512F590D0E0D8E0D00022C023
:1002E00000C291780823C0E0E5135290E5124290D5
:1002F000D0E0309204D2E08004C2E08000D8E6D0A2
:100300000022D2B722C0E0C2B7E91202B8E8120256
:10031000B8D2B7D0E022758920758841758DFD75FA
:10032000985022C299F5993099FD223098FDE599AF
:10033000547FC2982230E702F40422E930E707E84C
:10034000F404F8E9F4F922E82AF8E93BF922080371
:1003500023D8FD22082303D8FD22D517FD22D08300
:10036000D082E493B400028006120323A380F374C6
:100370000173740A120323740D12032322C0E012C6
:10038000038C120323EA120323D0E022FA540F2431
:10039000F650022407243ACAC4540F24F65002240B
:1003A00007243A2212032B1203B6C4F5F012032BD2
:1003B0001203B645F022C22E24D05017C324F640B3
:1003C00003240A22C2E5C324F95008C324FA4003D7
:0603D000540F22D22E2280
:00000001FF
