:02000000804E30
:10005000C2AF1202151201431202440A0D57656C19
:10006000636F6D6520746F20746865205369676ED7
:1000700041776179205245504C210075812FC21F74
:100080001202440A0D3E20001200A4FA0200C0121F
:1000900002440A0D42616420636F6D6D616E642ECF
:1000A0000002007B12022AC2E5120222C3944050D1
:1000B0000312008FC0E0941B400312008FD0E02297
:1000C0009000CFEA230493C0E0EA2393C0E022002B
:1000D0008F008F008F008F008F008F008F008F00A8
:1000E0008F008F008F008F008F008F008F008F0098
:1000F0008F008F0105008F008F008F008F011E0081
:100100008F008F008F12028A201F35F510120263B4
:1001100012018D120258E51112026302007B1202D5
:100120008A201F1CF51012026312022A12022212E8
:10013000028A201F0BF51112026312017802007B64
:1001400002008FC0E0D2B4D290D29274905407F8DB
:100150007401120234F512F4F51374915407F87413
:1001600001120234F514F4F51574925407F8740171
:10017000120234F516D0E022C0E0C2B4E51044808B
:100180001201AAE5111201AAD2B4D0E022C0E0C245
:10019000B4E510547F1201AA751740120240D292A2
:1001A0001201D7F511D2B4D0E022C000780823C0E4
:1001B000E030E008E590551345148008E5905513AC
:1001C00055158000F5907517031202404512F59001
:1001D000D0E0D8DAD00022C000780823C0E0E513D0
:1001E0005290751703120240E5124290D0E030920F
:1001F00004D2E08004C2E08000D8E0D00022D2B770
:10020000851090C2B7D2B775174012024085119081
:10021000C2B7D2B722758920758841758DFD759852
:100220005022C299F5993099FD223098FDE59954F4
:100230007FC29822080323D8FD22082303D8FD2279
:10024000D517FD22D083D082E493B4000280061239
:100250000222A380F3740173740A120222740D1235
:10026000022222C0E0120272120222EA120222D0FC
:10027000E022FA540F24F650022407243ACAC45448
:100280000F24F650022407243A2212022A12029C5A
:10029000C4F5F012022A12029C45F022C21F24D09B
:1002A0005017C324F64003240A22C2E5C324F950A0
:0C02B00008C324FA4003540F22D21F227E
:00000001FF
