:017B00000084
:017C00000083
:02000000804E30
:030003000201BB3C
:10005000C2AF1203A31201BE1203D20A0D57656C80
:10006000636F6D6520746F20746865205369676ED7
:1000700041776179205245504C210075812FC22E65
:100080001203D20A0D3E20001200A4FA0200C01290
:1000900003D20A0D42616420636F6D6D616E642E40
:1000A0000002007B1203B8C2E51203B0C3944050B3
:1000B0000312008FC0E0941B400312008FD0E02297
:1000C0009000CFEA230493C0E0EA2393C0E022002B
:1000D0008F008F008F008F008F008F008F008F00A8
:1000E0008F0184008F008F008F0196008F008F0199
:1000F00043008F01050164008F008F008F011E00F7
:100100008F008F008F120418202E35F5101203F186
:100110001203131203E6E5111203F102007B12042D
:1001200018202E1CF5101203F11203B81203B0129E
:100130000418202E0BF5111203F11202FE02007BAF
:1001400002008F1201F31203D20A0D41444E532DC7
:100150003938303020706F77657265642075702E85
:100160000002007B12023D1203D20A0D41444E539D
:100170002D39383030207368757420646F776E2E97
:100180000002007B12028A907C0075187F7519842A
:100190001201A802007B120264907B0075187B7527
:1001A000190E1201A802007B1203E6E01203F1A36C
:1001B000E582B519F6E583B518F122D2F032C0E038
:1001C000D2B4D290D29274905407F874011203C240
:1001D000F512F4F51374915407F874011203C2F583
:1001E00014F4F51574925407F874011203C2F5164D
:1001F000D0E022120233751762C0177517FFD517AA
:10020000FDD017D517F3751002120313120334052E
:1002100010120313120334051012031312033405D2
:1002200010120313120334051012031312033412B5
:10023000023E2275103A75115A1202FE22227510E2
:1002400020120313E511120334C2E0F5111202FE6D
:1002500022751020120313E511120334D2E0F511B8
:100260001202FE22C0E0C000C2B474D01203427475
:100270005012034212033B907B0075187B75190ED8
:100280001202E8D2B4D000D0E022C0E01202331251
:10029000023EC2B4749212034274931203421203D8
:1002A0002D749212034274C5120342D2B412032D6C
:1002B0007517FE1203CEC2B47402120342751740C2
:1002C0001203CE12036912033430E0EC746412039B
:1002D0004212033B12033B907C0075187F75198412
:1002E0001202E8D2B4D0E022120369F0A375170815
:1002F0001203CEE582B519F0E583B518EB22C0E014
:10030000C2B4E5104480120342E511120342D2B494
:10031000D0E022C0E0C2B4E510547F1203421203C1
:100320003BD292120369F511D2B4D0E02275174086
:100330001203CE2275170A1203CE2275174012033C
:10034000CE22C000780823C0E030E008E5905513C5
:1003500045148008E590551355158000F590451219
:10036000F590D0E0D8E0D00022C000C291780823F8
:10037000C0E0E5135290E5124290D0E0309204D2F2
:10038000E08004C2E08000D8E6D00022D2B7851019
:1003900090C2B7D2B77517401203CE851190C2B77D
:1003A000D2B722758920758841758DFD75985022C8
:1003B000C299F5993099FD223098FDE599547FC294
:1003C0009822080323D8FD22082303D8FD22D5173D
:1003D000FD22D083D082E493B4000280061203B0E1
:1003E000A380F3740173740A1203B0740D1203B086
:1003F00022C0E01204001203B0EA1203B0D0E022DF
:10040000FA540F24F650022407243ACAC4540F2485
:10041000F650022407243A221203B812042AC4F523
:10042000F01203B812042A45F022C22E24D050172D
:10043000C324F64003240A22C2E5C324F95008C3AA
:0A04400024FA4003540F22D22E22AA
:00000001FF
