:017B00000084
:017C00000083
:02000000804E30
:030003000201A552
:10005000C2AF1203571201A81203860A0D57656C2E
:10006000636F6D6520746F20746865205369676ED7
:1000700041776179205245504C210075812FC22E65
:100080001203860A0D3E20001200A4FA0200C012DC
:1000900003860A0D42616420636F6D6D616E642E8C
:1000A0000002007B12036CC2E5120364C39440504B
:1000B0000312008FC0E0941B400312008FD0E02297
:1000C0009000CFEA230493C0E0EA2393C0E022002B
:1000D0008F008F008F008F008F008F008F008F00A8
:1000E0008F0184008F008F008F019F008F008F0190
:1000F00043008F01050164008F008F008F011E00F7
:100100008F008F008F1203CC202E35F5101203A51F
:100110001202CB12039AE5111203A502007B12030F
:10012000CC202E1CF5101203A512036C12036412CE
:1001300003CC202E0BF5111203A51202B602007B90
:1001400002008F1201DD1203860A0D41444E532D29
:100150003938303020706F77657265642075702E85
:100160000002007B1202271203860A0D41444E53FF
:100170002D39383030207368757420646F776E2E97
:100180000002007B120246907C0012039AE01203E8
:10019000A5A3E582B484F6E583B47FF102007B1267
:1001A000024502007BD2F032C0E0D2B4D290D292AB
:1001B00074905407F87401120376F512F4F5137471
:1001C000915407F87401120376F514F4F51574923E
:1001D0005407F87401120376F516D0E02212021DBE
:1001E000751762C0177517FFD517FDD017D517F310
:1001F0007510021202CB12033905101202CB120342
:100200003905101202CB12033905101202CB12036A
:100210003905101202CB1203391202282275103A46
:1002200075115A1202B622227510201202CBE51166
:10023000120339C2E0F5111202B6227510207511B1
:10024000011202B62222C0E012021D7517FE12032F
:1002500082120228C2B474921202E874931202E865
:1002600012033274921202E874C51202E8D2B41278
:1002700003327517FE120382C2B474021202E875CB
:10028000174012038212030F12033930E0EC74643A
:100290001202E87517FE120382907C0012030FF021
:1002A000A3751708120382E582B484F0E583B47F56
:1002B000EBD2B4D0E022C0E0C2B4E5104480120218
:1002C000E8E5111202E8D2B4D0E022C0E0C2B4E501
:1002D00010547F1202E8751740120382D292120363
:1002E0000FF511D2B4D0E022C000780823C0E0306E
:1002F000E008E590551345148008E5905513551511
:100300008000F5904512F590D0E0D8E0D00022C0F2
:1003100000C291780823C0E0E5135290E5124290A4
:10032000D0E0309204D2E08004C2E08000D8E6D071
:1003300000227517401203822275170A12038222C7
:10034000D2B7851090C2B7D2B77517401203828515
:100350001190C2B7D2B722758920758841758DFD7D
:1003600075985022C299F5993099FD223098FDE593
:1003700099547FC29822080323D8FD22082303D86A
:10038000FD22D517FD22D083D082E493B4000280F1
:1003900006120364A380F3740173740A1203647475
:1003A0000D12036422C0E01203B4120364EA1203C4
:1003B00064D0E022FA540F24F650022407243ACAEB
:1003C000C4540F24F650022407243A2212036C125C
:1003D00003DEC4F5F012036C1203DE45F022C22ED8
:1003E00024D05017C324F64003240A22C2E5C324B4
:0E03F000F95008C324FA4003540F22D22E22E3
:00000001FF
