:017B00000084
:017C00000083
:02000000804E30
:030003000201BB3C
:10005000C2AF1203A41201BE1203D30A0D57656C7E
:10006000636F6D6520746F20746865205369676ED7
:1000700041776179205245504C210075812FC22E65
:100080001203D30A0D3E20001200A4FA0200C0128F
:1000900003D30A0D42616420636F6D6D616E642E3F
:1000A0000002007B1203B9C2E51203B1C3944050B1
:1000B0000312008FC0E0941B400312008FD0E02297
:1000C0009000CFEA230493C0E0EA2393C0E022002B
:1000D0008F008F008F008F008F008F008F008F00A8
:1000E0008F0184008F008F008F0196008F008F0199
:1000F00043008F01050164008F008F008F011E00F7
:100100008F008F008F120419202E35F5101203F284
:100110001203141203E7E5111203F202007B12042A
:1001200019202E1CF5101203F21203B91203B1129A
:100130000419202E0BF5111203F21202FF02007BAC
:1001400002008F1201F31203D30A0D41444E532DC6
:100150003938303020706F77657265642075702E85
:100160000002007B12023D1203D30A0D41444E539C
:100170002D39383030207368757420646F776E2E97
:100180000002007B12028B907C0075187F75198429
:100190001201A802007B120264907B0075187B7527
:1001A000190E1201A802007B1203E7E01203F2A36A
:1001B000E582B519F6E583B518F122D2F032C0E038
:1001C000D2B4D290D29274905407F874011203C33F
:1001D000F512F4F51374915407F874011203C3F582
:1001E00014F4F51574925407F874011203C3F5164C
:1001F000D0E022120233751762C0177517FFD517AA
:10020000FDD017D517F3751002120314120335052C
:1002100010120314120335051012031412033505CE
:1002200010120314120335051012031412033512B1
:10023000023E2275103A75115A1202FF22227510E1
:1002400020120314E511120335C2E0F5111202FF6A
:1002500022751020120314E511120335D2E0F511B6
:100260001202FF22C0E0C2B474D0120343745012D1
:10027000034312033C7450120343907B0075187BB8
:1002800075190E1202E9D2B4D0E022C0E012023396
:1002900012023EC2B47492120343749312034312C7
:1002A000032E749212034374C5120343D2B4120393
:1002B0002E7517FE1203CFC2B474021203437517D2
:1002C000401203CF12036A12033530E0EC7464125B
:1002D000034312033C12033C907C0075187F751990
:1002E000841202E9D2B4D0E02212036AF0A3751797
:1002F000081203CFE582B519F0E583B518EB22C0EB
:10030000E0C2B4E5104480120343E511120343D266
:10031000B4D0E022C0E0C2B4E510547F120343120F
:10032000033CD29212036AF511D2B4D0E0227517C1
:10033000401203CF2275170A1203CF2275174012FD
:1003400003CF22C000780823C0E030E008E59055D4
:100350001345148008E590551355158000F5904518
:1003600012F590D0E0D8E0D00022C000C291780809
:1003700023C0E0E5135290E5124290D0E0309204A1
:10038000D2E08004C2E08000D8E6D00022D2B78557
:100390001090C2B7D2B77517401203CF851190C223
:1003A000B7D2B722758920758841758DFD75985033
:1003B00022C299F5993099FD223098FDE599547F34
:1003C000C29822080323D8FD22082303D8FD22D592
:1003D00017FD22D083D082E493B40002800612037A
:1003E000B1A380F3740173740A1203B1740D120384
:1003F000B122C0E01204011203B1EA1203B1D0E04D
:1004000022FA540F24F650022407243ACAC4540F87
:1004100024F650022407243A221203B912042BC4F2
:10042000F5F01203B912042B45F022C22E24D0504D
:1004300017C324F64003240A22C2E5C324F9500856
:0B044000C324FA4003540F22D22E22E6
:00000001FF
