:017C00000083
:02000000804E30
:0300030002019F58
:10005000C2AF12034C1201A212037B0A0D57656C4A
:10006000636F6D6520746F20746865205369676ED7
:1000700041776179205245504C210075812FC22E65
:1000800012037B0A0D3E20001200A4FA0200C012E7
:10009000037B0A0D42616420636F6D6D616E642E97
:1000A0000002007B120361C2E5120359C394405061
:1000B0000312008FC0E0941B400312008FD0E02297
:1000C0009000CFEA230493C0E0EA2393C0E022002B
:1000D0008F008F008F008F008F008F008F008F00A8
:1000E0008F0184008F008F008F008F008F008F01A1
:1000F00040008F01050161008F008F008F011E00FD
:100100008F008F008F1203C1202E76F51012039AF4
:100110001202C012038FE51112039A02007B120330
:10012000C1202E5DF51012039A12036112035912B9
:1001300003C1202E4CF51112039A1202AB02007B70
:100140001201D712037B0A0D41444E532D3938302A
:100150003020706F77657265642075702E00020024
:100160007B12022112037B0A0D41444E532D393874
:100170003030207368757420646F776E2E00020033
:100180007B02008F12023B907C0012038FE012036F
:100190009AA3E582B484F6E583B47FF102007BD2B2
:1001A000F032C0E0D2B4D290D29274905407F87476
:1001B0000112036BF512F4F51374915407F87401EE
:1001C00012036BF514F4F51574925407F8740112C8
:1001D000036BF516D0E022120217751762C017756F
:1001E00017FFD517FDD017D517F37510021202C0EF
:1001F00012032E05101202C012032E05101202C0A7
:1002000012032E05101202C012032E05101202C096
:1002100012032E1202222275103A75115A1202ABE5
:1002200022227510201202C012032EC2E01202AB6D
:10023000227510207511011202AB22C0E0120217C4
:100240007517FE120377120222C2B474921202DDF5
:1002500074931202DD12032774921202DD74C51228
:1002600002DDD2B41203277517FE120377C2B474ED
:10027000021202DD75174012037712030412032ED7
:1002800030E0EC74641202DD751740120377907C45
:1002900000120304F0A3751708120377E582B484F3
:1002A000F0E583B47FEBD2B4D0E022C0E0C2B4E585
:1002B0001044801202DDE5111202DDD2B4D0E0223A
:1002C000C0E0C2B4E510547F1202DD75174012037E
:1002D00077D292120304F511D2B4D0E022C0007894
:1002E0000823C0E030E008E590551345148008E588
:1002F00090551355158000F5904512F590D0E0D833
:10030000E0D00022C000C291780823C0E0E513527B
:1003100090E5124290D0E0309204D2E08004C2E036
:100320008000D8E6D0002275174012037722751797
:100330000A12037722D2B7851090C2B7D2B77517C9
:1003400040120377851190C2B7D2B7227589207504
:100350008841758DFD75985022C299F5993099FDA7
:10036000223098FDE599547FC29822080323D8FDD6
:1003700022082303D8FD22D517FD22D083D082E4A2
:1003800093B400028006120359A380F374017374BE
:100390000A120359740D12035922C0E01203A91264
:1003A0000359EA120359D0E022FA540F24F65002FE
:1003B0002407243ACAC4540F24F650022407243ACE
:1003C000221203611203D3C4F5F01203611203D3A6
:1003D00045F022C22E24D05017C324F64003240A2D
:1003E00022C2E5C324F95008C324FA4003540F2263
:0303F000D22E22E8
:00000001FF
