:01700000008F
:02000000804E30
:030003000201A750
:10005000C2AF1203121201AA1203410A0D57656CB6
:10006000636F6D6520746F20746865205369676ED7
:1000700041776179205245504C210075812FC22E65
:100080001203410A0D3E20001200A4FA0200C01221
:1000900003410A0D42616420636F6D6D616E642ED1
:1000A0000002007B120327C2E512031FC3944050D5
:1000B0000312008FC0E0941B400312008FD0E02297
:1000C0009000CFEA230493C0E0EA2393C0E022002B
:1000D0008F008F008F008F008F008F008F008F00A8
:1000E0008F0184008F008F008F008F008F008F01A1
:1000F00040008F01050161008F008F008F011E00FD
:100100008F008F008F120387202E76F51012036068
:1001100012028A120355E51112036002007B1203DA
:1001200087202E5DF51012036012032712031F12A1
:100130000387202E4CF51112036012027502007B1A
:100140001201DF1203410A0D41444E532D3938305C
:100150003020706F77657265642075702E00020024
:100160007B12021A1203410A0D41444E532D3938B5
:100170003030207368757420646F776E2E00020033
:100180007B02008F12022F90700075185AC01875EC
:10019000180AE012031F058250020583D518F3D018
:1001A00018D518E902007BD2F032C0E0D2B4D29068
:1001B000D29274905407F87401120331F512F4F5D9
:1001C0001374915407F87401120331F514F4F51502
:1001D00074925407F87401120331F516D0E022121C
:1001E0000210751762C0177517FFD517FDD017D508
:1001F00017F375100212028A051012028A051012F6
:10020000028A051012028A051012028A12021B22AB
:1002100075103A75115A1202752222751020751147
:10022000001202752275102075110112027522C08C
:10023000E012021012021BC2B474121202A77493CD
:100240001202A774121202A774C51202A7D2B4C276
:10025000B490700075185AC2B4C01875180A12020A
:10026000D4F0058250020583D518F3D018D518E9CB
:10027000D2B4D0E022C0E0C2B4E51044801202A79C
:10028000E5111202A7D2B4D0E022C0E0C2B4E5105A
:10029000547F1202A775174012033DD2921202D466
:1002A000F511D2B4D0E022C000780823C0E030E0DD
:1002B00008E590551345148008E5905513551580B1
:1002C00000F59075170312033D4512F590D0E0D864
:1002D000DAD00022C000780823C0E0E51352907500
:1002E000170312033DE5124290D0E0309204D2E0B1
:1002F0008004C2E08000D8E0D00022D2B785109000
:10030000C2B7D2B775174012033D851190C2B7D25C
:10031000B722758920758841758DFD75985022C268
:1003200099F5993099FD223098FDE599547FC2984E
:1003300022080323D8FD22082303D8FD22D517FD68
:1003400022D083D082E493B40002800612031FA35C
:1003500080F3740173740A12031F740D12031F22B9
:10036000C0E012036F12031FEA12031FD0E022FA4B
:10037000540F24F650022407243ACAC4540F24F61A
:1003800050022407243A22120327120399C4F5F0DD
:1003900012032712039945F022C22E24D05017C30E
:1003A00024F64003240A22C2E5C324F95008C324DA
:0903B000FA4003540F22D22E2260
:00000001FF
