:02000000804E30
:10005000C2AF1201E91201321202140A0D57656C87
:10006000636F6D6520746F20746865205369676ED7
:1000700041776179205245504C210075812F120241
:10008000140A0D3E20001200A2FA0200BE12021451
:100090000A0D42616420636F6D6D616E642E000213
:1000A000007B1201FEC2E51201F6C3944050031218
:1000B000008DC0E0941B400312008DD0E022900020
:1000C000CDEA230493C0E0EA2393C0E022008D0030
:1000D0008D008D008D008D008D008D008D008D00B8
:1000E0008D008D008D008D008D008D008D008D00A8
:1000F0008D0103008D008D008D008D0116008D0097
:100100008D008D12025AF51012023312017AE51198
:1001100012023302007B12025AF51012023312014E
:10012000FE1201F612025AF5111202331201650293
:10013000007BC0E0D2B5D290E590540FF874011264
:100140000208F512F4F513E591540FF87401120248
:1001500008F514F4F515E592540FF874011202082D
:10016000F516D0E022C0E0C2B5E51044801201953A
:10017000E511120195D2B5D0E022C0E0C2B5E5107C
:10018000547F1201957517401202101201C2F51129
:10019000D2B5D0E022C000780723C0E030E008E507
:1001A00090551345148008E590551345148000F5CB
:1001B000907517011202104512F590D0E0D8DAD0F0
:1001C0000022C000780723C0E0E5135290751701A4
:1001D000120210E5124290D0E0309204D2E0800486
:1001E000C2E08000D8B3D00022758920758841759F
:1001F0008DFD75985022C299F5993099FD2230985D
:10020000FDE599547FC2982223D8FD2203D8FD2210
:10021000D517FD22D083D082E493B4000280061269
:1002200001F6A380F3740173740A1201F6740D12BF
:1002300001F622C0E01202421201F6EA1201F6D0E3
:10024000E022FA540F24F650022407243ACAC45478
:100250000F24F650022407243A221201FE12026CE7
:10026000C4F5F01201FE12026C45F022C21F24D028
:100270005017C324F64003240A22C2E5C324F950D0
:0C02800008C324FA4003540F22D21F22AE
:00000001FF
